{
  "contractName": "CookerStaking",
  "abi": [
    {
      "inputs": [
        {
          "internalType": "uint256",
          "name": "maxNumberOfPeriods_",
          "type": "uint256"
        },
        {
          "internalType": "uint256",
          "name": "rewardPeriodDuration_",
          "type": "uint256"
        },
        {
          "internalType": "uint256",
          "name": "periodsForExtraReward_",
          "type": "uint256"
        },
        {
          "internalType": "uint256",
          "name": "extraRewardMultiplier_",
          "type": "uint256"
        },
        {
          "internalType": "uint256",
          "name": "cooldown_",
          "type": "uint256"
        },
        {
          "internalType": "uint256",
          "name": "earlyWithdrawalFee_",
          "type": "uint256"
        },
        {
          "internalType": "address",
          "name": "signatureAddress_",
          "type": "address"
        },
        {
          "internalType": "address",
          "name": "stakingTokenAddress",
          "type": "address"
        }
      ],
      "stateMutability": "nonpayable",
      "type": "constructor"
    },
    {
      "anonymous": false,
      "inputs": [
        {
          "indexed": false,
          "internalType": "address",
          "name": "stakeholder_",
          "type": "address"
        },
        {
          "indexed": false,
          "internalType": "bool",
          "name": "active_",
          "type": "bool"
        }
      ],
      "name": "Active",
      "type": "event"
    },
    {
      "anonymous": false,
      "inputs": [
        {
          "indexed": false,
          "internalType": "string",
          "name": "field_",
          "type": "string"
        },
        {
          "indexed": false,
          "internalType": "uint256",
          "name": "value_",
          "type": "uint256"
        }
      ],
      "name": "ConfigUpdate",
      "type": "event"
    },
    {
      "anonymous": false,
      "inputs": [
        {
          "indexed": false,
          "internalType": "address",
          "name": "stakeholder_",
          "type": "address"
        },
        {
          "indexed": false,
          "internalType": "uint256",
          "name": "amount_",
          "type": "uint256"
        },
        {
          "indexed": false,
          "internalType": "uint256",
          "name": "releaseDate_",
          "type": "uint256"
        }
      ],
      "name": "InitiateWithdraw",
      "type": "event"
    },
    {
      "anonymous": false,
      "inputs": [
        {
          "indexed": true,
          "internalType": "address",
          "name": "previousOwner",
          "type": "address"
        },
        {
          "indexed": true,
          "internalType": "address",
          "name": "newOwner",
          "type": "address"
        }
      ],
      "name": "OwnershipTransferred",
      "type": "event"
    },
    {
      "anonymous": false,
      "inputs": [
        {
          "indexed": true,
          "internalType": "address",
          "name": "stakeholder_",
          "type": "address"
        },
        {
          "indexed": false,
          "internalType": "uint256",
          "name": "reward_",
          "type": "uint256"
        },
        {
          "indexed": false,
          "internalType": "uint256",
          "name": "lockedReward_",
          "type": "uint256"
        },
        {
          "indexed": false,
          "internalType": "uint256",
          "name": "numberOfPeriods_",
          "type": "uint256"
        }
      ],
      "name": "Rewarding",
      "type": "event"
    },
    {
      "anonymous": false,
      "inputs": [
        {
          "indexed": true,
          "internalType": "address",
          "name": "stakeholder_",
          "type": "address"
        },
        {
          "indexed": false,
          "internalType": "uint256",
          "name": "stake_",
          "type": "uint256"
        }
      ],
      "name": "Staking",
      "type": "event"
    },
    {
      "anonymous": false,
      "inputs": [
        {
          "indexed": false,
          "internalType": "address",
          "name": "stakeholder_",
          "type": "address"
        },
        {
          "indexed": false,
          "internalType": "uint256",
          "name": "amount_",
          "type": "uint256"
        },
        {
          "indexed": false,
          "internalType": "uint256",
          "name": "fee_",
          "type": "uint256"
        }
      ],
      "name": "Withdraw",
      "type": "event"
    },
    {
      "inputs": [
        {
          "internalType": "uint256",
          "name": "",
          "type": "uint256"
        }
      ],
      "name": "_totalLockedRewards",
      "outputs": [
        {
          "internalType": "uint256",
          "name": "",
          "type": "uint256"
        }
      ],
      "stateMutability": "view",
      "type": "function",
      "constant": true
    },
    {
      "inputs": [],
      "name": "cooldown",
      "outputs": [
        {
          "internalType": "uint256",
          "name": "",
          "type": "uint256"
        }
      ],
      "stateMutability": "view",
      "type": "function",
      "constant": true
    },
    {
      "inputs": [],
      "name": "decimalPrecision",
      "outputs": [
        {
          "internalType": "uint256",
          "name": "",
          "type": "uint256"
        }
      ],
      "stateMutability": "view",
      "type": "function",
      "constant": true
    },
    {
      "inputs": [],
      "name": "decimals",
      "outputs": [
        {
          "internalType": "uint256",
          "name": "",
          "type": "uint256"
        }
      ],
      "stateMutability": "view",
      "type": "function",
      "constant": true
    },
    {
      "inputs": [],
      "name": "earlyWithdrawalFee",
      "outputs": [
        {
          "internalType": "uint256",
          "name": "",
          "type": "uint256"
        }
      ],
      "stateMutability": "view",
      "type": "function",
      "constant": true
    },
    {
      "inputs": [],
      "name": "latestRewardPeriod",
      "outputs": [
        {
          "internalType": "uint256",
          "name": "",
          "type": "uint256"
        }
      ],
      "stateMutability": "view",
      "type": "function",
      "constant": true
    },
    {
      "inputs": [],
      "name": "maxNumberOfPeriods",
      "outputs": [
        {
          "internalType": "uint256",
          "name": "",
          "type": "uint256"
        }
      ],
      "stateMutability": "view",
      "type": "function",
      "constant": true
    },
    {
      "inputs": [],
      "name": "name",
      "outputs": [
        {
          "internalType": "string",
          "name": "",
          "type": "string"
        }
      ],
      "stateMutability": "view",
      "type": "function",
      "constant": true
    },
    {
      "inputs": [],
      "name": "owner",
      "outputs": [
        {
          "internalType": "address",
          "name": "",
          "type": "address"
        }
      ],
      "stateMutability": "view",
      "type": "function",
      "constant": true
    },
    {
      "inputs": [],
      "name": "periodsForExtraReward",
      "outputs": [
        {
          "internalType": "uint256",
          "name": "",
          "type": "uint256"
        }
      ],
      "stateMutability": "view",
      "type": "function",
      "constant": true
    },
    {
      "inputs": [],
      "name": "renounceOwnership",
      "outputs": [],
      "stateMutability": "nonpayable",
      "type": "function"
    },
    {
      "inputs": [],
      "name": "rewardPeriodDuration",
      "outputs": [
        {
          "internalType": "uint256",
          "name": "",
          "type": "uint256"
        }
      ],
      "stateMutability": "view",
      "type": "function",
      "constant": true
    },
    {
      "inputs": [
        {
          "internalType": "uint256",
          "name": "",
          "type": "uint256"
        }
      ],
      "name": "rewardPeriods",
      "outputs": [
        {
          "internalType": "uint256",
          "name": "rewardPerPeriod",
          "type": "uint256"
        },
        {
          "internalType": "uint256",
          "name": "extraRewardMultiplier",
          "type": "uint256"
        },
        {
          "internalType": "uint256",
          "name": "maxWeight",
          "type": "uint256"
        }
      ],
      "stateMutability": "view",
      "type": "function",
      "constant": true
    },
    {
      "inputs": [],
      "name": "signatureAddress",
      "outputs": [
        {
          "internalType": "address",
          "name": "",
          "type": "address"
        }
      ],
      "stateMutability": "view",
      "type": "function",
      "constant": true
    },
    {
      "inputs": [
        {
          "internalType": "address",
          "name": "",
          "type": "address"
        }
      ],
      "name": "stakeholders",
      "outputs": [
        {
          "internalType": "uint256",
          "name": "stakingBalance",
          "type": "uint256"
        },
        {
          "internalType": "uint256",
          "name": "weight",
          "type": "uint256"
        },
        {
          "internalType": "uint256",
          "name": "startDate",
          "type": "uint256"
        },
        {
          "internalType": "uint256",
          "name": "lastClaimed",
          "type": "uint256"
        },
        {
          "internalType": "uint256",
          "name": "releaseDate",
          "type": "uint256"
        },
        {
          "internalType": "uint256",
          "name": "releaseAmount",
          "type": "uint256"
        },
        {
          "internalType": "uint256",
          "name": "newStake",
          "type": "uint256"
        },
        {
          "internalType": "uint256",
          "name": "lockedRewards",
          "type": "uint256"
        }
      ],
      "stateMutability": "view",
      "type": "function",
      "constant": true
    },
    {
      "inputs": [],
      "name": "stakingToken",
      "outputs": [
        {
          "internalType": "contract IERC20",
          "name": "",
          "type": "address"
        }
      ],
      "stateMutability": "view",
      "type": "function",
      "constant": true
    },
    {
      "inputs": [],
      "name": "startDate",
      "outputs": [
        {
          "internalType": "uint256",
          "name": "",
          "type": "uint256"
        }
      ],
      "stateMutability": "view",
      "type": "function",
      "constant": true
    },
    {
      "inputs": [],
      "name": "symbol",
      "outputs": [
        {
          "internalType": "string",
          "name": "",
          "type": "string"
        }
      ],
      "stateMutability": "view",
      "type": "function",
      "constant": true
    },
    {
      "inputs": [
        {
          "internalType": "address",
          "name": "newOwner",
          "type": "address"
        }
      ],
      "name": "transferOwnership",
      "outputs": [],
      "stateMutability": "nonpayable",
      "type": "function"
    },
    {
      "inputs": [
        {
          "internalType": "uint256",
          "name": "",
          "type": "uint256"
        }
      ],
      "name": "weightCounts",
      "outputs": [
        {
          "internalType": "uint256",
          "name": "",
          "type": "uint256"
        }
      ],
      "stateMutability": "view",
      "type": "function",
      "constant": true
    },
    {
      "inputs": [
        {
          "internalType": "uint256",
          "name": "period",
          "type": "uint256"
        },
        {
          "internalType": "uint256",
          "name": "weightExponent",
          "type": "uint256"
        }
      ],
      "name": "totalStakingBalance",
      "outputs": [
        {
          "internalType": "uint256",
          "name": "totalStaking",
          "type": "uint256"
        }
      ],
      "stateMutability": "view",
      "type": "function",
      "constant": true
    },
    {
      "inputs": [
        {
          "internalType": "uint256",
          "name": "weightExponent",
          "type": "uint256"
        }
      ],
      "name": "totalNewStake",
      "outputs": [
        {
          "internalType": "uint256",
          "name": "totalNew",
          "type": "uint256"
        }
      ],
      "stateMutability": "view",
      "type": "function",
      "constant": true
    },
    {
      "inputs": [
        {
          "internalType": "uint256",
          "name": "weightExponent",
          "type": "uint256"
        }
      ],
      "name": "totalLockedRewards",
      "outputs": [
        {
          "internalType": "uint256",
          "name": "totalLocked",
          "type": "uint256"
        }
      ],
      "stateMutability": "view",
      "type": "function",
      "constant": true
    },
    {
      "inputs": [
        {
          "internalType": "uint256",
          "name": "endPeriod",
          "type": "uint256"
        }
      ],
      "name": "handleNewPeriod",
      "outputs": [],
      "stateMutability": "nonpayable",
      "type": "function"
    },
    {
      "inputs": [],
      "name": "calculateRewardPerPeriod",
      "outputs": [
        {
          "internalType": "uint256",
          "name": "rewardPerPeriod",
          "type": "uint256"
        }
      ],
      "stateMutability": "view",
      "type": "function",
      "constant": true
    },
    {
      "inputs": [
        {
          "internalType": "uint256",
          "name": "weight_",
          "type": "uint256"
        },
        {
          "internalType": "bytes",
          "name": "signature",
          "type": "bytes"
        }
      ],
      "name": "increaseWeight",
      "outputs": [],
      "stateMutability": "nonpayable",
      "type": "function"
    },
    {
      "inputs": [
        {
          "internalType": "address[]",
          "name": "stakeholders_",
          "type": "address[]"
        },
        {
          "internalType": "uint256[]",
          "name": "weights_",
          "type": "uint256[]"
        }
      ],
      "name": "updateWeightBatch",
      "outputs": [],
      "stateMutability": "nonpayable",
      "type": "function"
    },
    {
      "inputs": [
        {
          "internalType": "uint256",
          "name": "amount",
          "type": "uint256"
        }
      ],
      "name": "stake",
      "outputs": [],
      "stateMutability": "nonpayable",
      "type": "function"
    },
    {
      "inputs": [
        {
          "internalType": "uint256",
          "name": "amount",
          "type": "uint256"
        },
        {
          "internalType": "bool",
          "name": "instant",
          "type": "bool"
        },
        {
          "internalType": "bool",
          "name": "claimRewardsFirst",
          "type": "bool"
        }
      ],
      "name": "requestWithdrawal",
      "outputs": [],
      "stateMutability": "nonpayable",
      "type": "function"
    },
    {
      "inputs": [],
      "name": "withdrawFunds",
      "outputs": [],
      "stateMutability": "nonpayable",
      "type": "function"
    },
    {
      "inputs": [
        {
          "internalType": "uint256",
          "name": "endPeriod",
          "type": "uint256"
        },
        {
          "internalType": "bool",
          "name": "withdraw",
          "type": "bool"
        }
      ],
      "name": "claimRewards",
      "outputs": [],
      "stateMutability": "nonpayable",
      "type": "function"
    },
    {
      "inputs": [
        {
          "internalType": "address[]",
          "name": "stakeholders_",
          "type": "address[]"
        }
      ],
      "name": "claimRewardsAsOwner",
      "outputs": [],
      "stateMutability": "nonpayable",
      "type": "function"
    },
    {
      "inputs": [
        {
          "internalType": "address",
          "name": "stakeholderAddress",
          "type": "address"
        },
        {
          "internalType": "uint256",
          "name": "endPeriod",
          "type": "uint256"
        }
      ],
      "name": "calculateRewards",
      "outputs": [
        {
          "internalType": "uint256",
          "name": "reward",
          "type": "uint256"
        },
        {
          "internalType": "uint256",
          "name": "lockedRewards",
          "type": "uint256"
        },
        {
          "components": [
            {
              "internalType": "uint256",
              "name": "stakingBalance",
              "type": "uint256"
            },
            {
              "internalType": "uint256",
              "name": "weight",
              "type": "uint256"
            },
            {
              "internalType": "uint256",
              "name": "startDate",
              "type": "uint256"
            },
            {
              "internalType": "uint256",
              "name": "lastClaimed",
              "type": "uint256"
            },
            {
              "internalType": "uint256",
              "name": "releaseDate",
              "type": "uint256"
            },
            {
              "internalType": "uint256",
              "name": "releaseAmount",
              "type": "uint256"
            },
            {
              "internalType": "uint256",
              "name": "newStake",
              "type": "uint256"
            },
            {
              "internalType": "uint256",
              "name": "lockedRewards",
              "type": "uint256"
            }
          ],
          "internalType": "struct CookerStaking.StakeHolder",
          "name": "stakeholder",
          "type": "tuple"
        }
      ],
      "stateMutability": "view",
      "type": "function",
      "constant": true
    },
    {
      "inputs": [
        {
          "internalType": "address",
          "name": "sender",
          "type": "address"
        },
        {
          "internalType": "uint256",
          "name": "weight",
          "type": "uint256"
        },
        {
          "internalType": "bytes",
          "name": "signature",
          "type": "bytes"
        }
      ],
      "name": "_recoverSigner",
      "outputs": [
        {
          "internalType": "address",
          "name": "",
          "type": "address"
        }
      ],
      "stateMutability": "view",
      "type": "function",
      "constant": true
    },
    {
      "inputs": [
        {
          "internalType": "uint256",
          "name": "amount",
          "type": "uint256"
        }
      ],
      "name": "withdrawRemainingFunds",
      "outputs": [],
      "stateMutability": "nonpayable",
      "type": "function"
    },
    {
      "inputs": [
        {
          "internalType": "address",
          "name": "value",
          "type": "address"
        }
      ],
      "name": "updateSignatureAddress",
      "outputs": [],
      "stateMutability": "nonpayable",
      "type": "function"
    },
    {
      "inputs": [
        {
          "internalType": "uint256",
          "name": "value",
          "type": "uint256"
        }
      ],
      "name": "updateMaxNumberOfPeriods",
      "outputs": [],
      "stateMutability": "nonpayable",
      "type": "function"
    },
    {
      "inputs": [
        {
          "internalType": "uint256",
          "name": "value",
          "type": "uint256"
        }
      ],
      "name": "updateCoolDownPeriod",
      "outputs": [],
      "stateMutability": "nonpayable",
      "type": "function"
    },
    {
      "inputs": [
        {
          "internalType": "uint256",
          "name": "value",
          "type": "uint256"
        }
      ],
      "name": "updateEarlyWithdrawalFee",
      "outputs": [],
      "stateMutability": "nonpayable",
      "type": "function"
    },
    {
      "inputs": [
        {
          "internalType": "uint256",
          "name": "value",
          "type": "uint256"
        }
      ],
      "name": "updateExtraRewardMultiplier",
      "outputs": [],
      "stateMutability": "nonpayable",
      "type": "function"
    },
    {
      "inputs": [],
      "name": "currentPeriod",
      "outputs": [
        {
          "internalType": "uint256",
          "name": "period",
          "type": "uint256"
        }
      ],
      "stateMutability": "view",
      "type": "function",
      "constant": true
    },
    {
      "inputs": [],
      "name": "handleDecreasingMaxWeight",
      "outputs": [],
      "stateMutability": "nonpayable",
      "type": "function"
    },
    {
      "inputs": [
        {
          "internalType": "address",
          "name": "stakeholderAddress",
          "type": "address"
        }
      ],
      "name": "activeStakeholder",
      "outputs": [
        {
          "internalType": "bool",
          "name": "active",
          "type": "bool"
        }
      ],
      "stateMutability": "view",
      "type": "function",
      "constant": true
    },
    {
      "inputs": [
        {
          "internalType": "address",
          "name": "stakeholderAddress",
          "type": "address"
        }
      ],
      "name": "balanceOf",
      "outputs": [
        {
          "internalType": "uint256",
          "name": "balance",
          "type": "uint256"
        }
      ],
      "stateMutability": "view",
      "type": "function",
      "constant": true
    },
    {
      "inputs": [
        {
          "internalType": "bytes",
          "name": "",
          "type": "bytes"
        }
      ],
      "name": "checkUpkeep",
      "outputs": [
        {
          "internalType": "bool",
          "name": "upkeepNeeded",
          "type": "bool"
        },
        {
          "internalType": "bytes",
          "name": "",
          "type": "bytes"
        }
      ],
      "stateMutability": "view",
      "type": "function",
      "constant": true
    },
    {
      "inputs": [
        {
          "internalType": "bytes",
          "name": "",
          "type": "bytes"
        }
      ],
      "name": "performUpkeep",
      "outputs": [],
      "stateMutability": "nonpayable",
      "type": "function"
    }
  ],
  "bytecode": "0x6080604052620f4240600f556040518060400160405280600a81526020017f5374616b656420454e560000000000000000000000000000000000000000000081525060109080519060200190620000589291906200029f565b506040518060400160405280600481526020017f73454e560000000000000000000000000000000000000000000000000000000081525060119080519060200190620000a69291906200029f565b5060128055348015620000b857600080fd5b506040516200644d3803806200644d8339818101604052810190620000de91906200037d565b620000fe620000f2620001d360201b60201c565b620001db60201b60201c565b87600a8190555086600b8190555085600c8190555083600d8190555082600e8190555081600760006101000a81548173ffffffffffffffffffffffffffffffffffffffff021916908373ffffffffffffffffffffffffffffffffffffffff16021790555080600860006101000a81548173ffffffffffffffffffffffffffffffffffffffff021916908373ffffffffffffffffffffffffffffffffffffffff16021790555042600981905550846002600080815260200190815260200160002060010181905550505050505050505062000517565b600033905090565b60008060009054906101000a900473ffffffffffffffffffffffffffffffffffffffff169050816000806101000a81548173ffffffffffffffffffffffffffffffffffffffff021916908373ffffffffffffffffffffffffffffffffffffffff1602179055508173ffffffffffffffffffffffffffffffffffffffff168173ffffffffffffffffffffffffffffffffffffffff167f8be0079c531659141344cd1fd0a4f28419497f9722a3daafe3b4186f6b6457e060405160405180910390a35050565b828054620002ad906200047e565b90600052602060002090601f016020900481019282620002d157600085556200031d565b82601f10620002ec57805160ff19168380011785556200031d565b828001600101855582156200031d579182015b828111156200031c578251825591602001919060010190620002ff565b5b5090506200032c919062000330565b5090565b5b808211156200034b57600081600090555060010162000331565b5090565b6000815190506200036081620004e3565b92915050565b6000815190506200037781620004fd565b92915050565b600080600080600080600080610100898b0312156200039b57600080fd5b6000620003ab8b828c0162000366565b9850506020620003be8b828c0162000366565b9750506040620003d18b828c0162000366565b9650506060620003e48b828c0162000366565b9550506080620003f78b828c0162000366565b94505060a06200040a8b828c0162000366565b93505060c06200041d8b828c016200034f565b92505060e0620004308b828c016200034f565b9150509295985092959890939650565b60006200044d8262000454565b9050919050565b600073ffffffffffffffffffffffffffffffffffffffff82169050919050565b6000819050919050565b600060028204905060018216806200049757607f821691505b60208210811415620004ae57620004ad620004b4565b5b50919050565b7f4e487b7100000000000000000000000000000000000000000000000000000000600052602260045260246000fd5b620004ee8162000440565b8114620004fa57600080fd5b50565b620005088162000474565b81146200051457600080fd5b50565b615f2680620005276000396000f3fe608060405234801561001057600080fd5b506004361061028a5760003560e01c806378fc4b9f1161015c578063bd798a3f116100ce578063d9f003ae11610087578063d9f003ae146107ab578063e1159cd7146107db578063e468475f146107f9578063e5cd7e1014610815578063ea77434614610831578063f2fde38b146108615761028a565b8063bd798a3f146106ba578063beb8314c146106d6578063c07cfca914610708578063c4efa6651461073f578063d05cefb91461075d578063d3dfe8381461078d5761028a565b80638da5cb5b116101205780638da5cb5b1461060e578063935ece311461062c57806395d89b4114610648578063a694fc3a14610666578063b017e23814610682578063bbbbbed51461069e5761028a565b806378fc4b9f1461056857806381e07d52146105845780638252097d1461058e57806389d21f29146105c05780638d5fe209146105f05761028a565b806324600fc3116102005780636e04ff0d116101b95780636e04ff0d146104a557806370a08231146104d6578063715018a61461050657806372f702f314610510578063732657b31461052e578063787a08a61461054a5761028a565b806324600fc3146103f7578063313ce5671461040157806331d36cdd1461041f5780633632e6c61461044f5780633b6dc6b41461046b5780634585e33b146104895761028a565b806314d6d7601161025257806314d6d7601461032357806316330d4014610341578063166699541461035f578063178fd6781461038f57806317cc4d18146103ab57806323477cb3146103c75761028a565b8063025175981461028f57806306040618146102ab57806306fdde03146102c95780630b97bc86146102e757806311417b8114610305575b600080fd5b6102a960048036038101906102a49190614aa8565b61087d565b005b6102b3610960565b6040516102c09190615790565b60405180910390f35b6102d1610992565b6040516102de91906154f6565b60405180910390f35b6102ef610a20565b6040516102fc9190615790565b60405180910390f35b61030d610a26565b60405161031a9190615790565b60405180910390f35b61032b610a2c565b6040516103389190615790565b60405180910390f35b610349610a32565b6040516103569190615790565b60405180910390f35b610379600480360381019061037491906148c1565b610a38565b604051610386919061544b565b60405180910390f35b6103a960048036038101906103a49190614aa8565b610b20565b005b6103c560048036038101906103c09190614b36565b610fd2565b005b6103e160048036038101906103dc9190614aa8565b61137a565b6040516103ee9190615790565b60405180910390f35b6103ff611392565b005b610409611609565b6040516104169190615790565b60405180910390f35b61043960048036038101906104349190614bd9565b61160f565b6040516104469190615790565b60405180910390f35b61046960048036038101906104649190614aa8565b6116a5565b005b610473611762565b6040516104809190615310565b60405180910390f35b6104a3600480360381019061049e9190614a63565b611788565b005b6104bf60048036038101906104ba9190614a63565b61179c565b6040516104cd929190615466565b60405180910390f35b6104f060048036038101906104eb91906148c1565b6117b5565b6040516104fd9190615790565b60405180910390f35b61050e611807565b005b61051861188f565b60405161052591906154db565b60405180910390f35b6105486004803603810190610543919061498d565b6118b5565b005b6105526119b7565b60405161055f9190615790565b60405180910390f35b610582600480360381019061057d9190614aa8565b6119bd565b005b61058c611a7a565b005b6105a860048036038101906105a39190614aa8565b611b64565b6040516105b7939291906157e3565b60405180910390f35b6105da60048036038101906105d59190614aa8565b611b8e565b6040516105e79190615790565b60405180910390f35b6105f8611c11565b6040516106059190615790565b60405180910390f35b610616611c17565b6040516106239190615310565b60405180910390f35b610646600480360381019061064191906148c1565b611c40565b005b610650611d00565b60405161065d91906154f6565b60405180910390f35b610680600480360381019061067b9190614aa8565b611d8e565b005b61069c60048036038101906106979190614b85565b61215c565b005b6106b860048036038101906106b391906149ce565b6124ac565b005b6106d460048036038101906106cf9190614aa8565b612a80565b005b6106f060048036038101906106eb91906148ea565b612d94565b6040516106ff939291906157ab565b60405180910390f35b610722600480360381019061071d91906148c1565b61373e565b60405161073698979695949392919061581a565b60405180910390f35b610747613786565b6040516107549190615790565b60405180910390f35b61077760048036038101906107729190614aa8565b61378c565b6040516107849190615790565b60405180910390f35b61079561380f565b6040516107a29190615790565b60405180910390f35b6107c560048036038101906107c09190614926565b613a6a565b6040516107d29190615310565b60405180910390f35b6107e3613ab1565b6040516107f09190615790565b60405180910390f35b610813600480360381019061080e9190614afa565b613ab7565b005b61082f600480360381019061082a9190614aa8565b613adc565b005b61084b60048036038101906108469190614aa8565b613b99565b6040516108589190615790565b60405180910390f35b61087b600480360381019061087691906148c1565b613bb1565b005b610885613ca9565b73ffffffffffffffffffffffffffffffffffffffff166108a3611c17565b73ffffffffffffffffffffffffffffffffffffffff16146108f9576040517f08c379a00000000000000000000000000000000000000000000000000000000081526004016108f090615710565b60405180910390fd5b610909610904610960565b610b20565b80600260006003548152602001908152602001600020600101819055507fad219fed7e76fbd06f005484092a7e2a85d653e9e6be64f32f01c2bb5b21d0e0816040516109559190615538565b60405180910390a150565b6000600b54600954426109739190615be6565b61097d91906159ea565b9050600a5481111561098f57600a5490505b90565b6010805461099f90615d1b565b80601f01602080910402602001604051908101604052809291908181526020018280546109cb90615d1b565b8015610a185780601f106109ed57610100808354040283529160200191610a18565b820191906000526020600020905b8154815290600101906020018083116109fb57829003601f168201915b505050505081565b60095481565b60035481565b600a5481565b600e5481565b600080600160008473ffffffffffffffffffffffffffffffffffffffff1673ffffffffffffffffffffffffffffffffffffffff168152602001908152602001600020600001541180610acc57506000600160008473ffffffffffffffffffffffffffffffffffffffff1673ffffffffffffffffffffffffffffffffffffffff16815260200190815260200160002060060154115b80610b1957506000600160008473ffffffffffffffffffffffffffffffffffffffff1673ffffffffffffffffffffffffffffffffffffffff16815260200190815260200160002060070154115b9050919050565b80610b29610960565b1015610b3a57610b37610960565b90505b5b806003541015610fcf576000610b54600354600161160f565b9050610b5e61380f565b6002600060035481526020019081526020016000206000018190555060036000815480929190610b8d90615d4d565b9190505550600260006001600354610ba59190615be6565b81526020019081526020016000206001015460026000600354815260200190815260200160002060010181905550600260006001600354610be69190615be6565b81526020019081526020016000206002015460026000600354815260200190815260200160002060020181905550600260006001600354610c279190615be6565b8152602001908152602001600020600001546002600060035481526020019081526020016000206000018190555060005b600260006001600354610c6b9190615be6565b8152602001908152602001600020600201548111610fc8576004600082815260200190815260200160002054600260006001600354610caa9190615be6565b8152602001908152602001600020600301600083815260200190815260200160002054610cd79190615994565b6002600060035481526020019081526020016000206003016000838152602001908152602001600020819055506000600460008381526020019081526020016000208190555060008083118015610d6357506000600260006001600354610d3e9190615be6565b8152602001908152602001600020600301600084815260200190815260200160002054115b15610e7d57600260006001600354610d7b9190615be6565b815260200190815260200160002060030160008381526020019081526020016000205483600260006001600354610db29190615be6565b815260200190815260200160002060030160008581526020019081526020016000205485600186610de39190615994565b600260006001600354610df69190615be6565b815260200190815260200160002060000154610e129190615b8c565b610e1c9190615994565b610e269190615b8c565b610e3091906159ea565b610e3a9190615be6565b90508060026000600354815260200190815260200160002060030160008481526020019081526020016000206000828254610e759190615994565b925050819055505b6001600c54600354610e8f9190615da0565b1415610f4d57600f54600260006001600354610eab9190615be6565b81526020019081526020016000206001015482610ec89190615b8c565b610ed291906159ea565b6005600084815260200190815260200160002054610ef09190615994565b60026000600354815260200190815260200160002060030160008481526020019081526020016000206000828254610f289190615994565b9250508190555060006005600084815260200190815260200160002081905550610fb4565b600f54600260006001600354610f639190615be6565b81526020019081526020016000206001015482610f809190615b8c565b610f8a91906159ea565b600560008481526020019081526020016000206000828254610fac9190615994565b925050819055505b508080610fc090615d4d565b915050610c58565b5050610b3b565b50565b6000610fdc613ca9565b90506000600160008373ffffffffffffffffffffffffffffffffffffffff1673ffffffffffffffffffffffffffffffffffffffff16815260200190815260200160002090506000600d54141561103157600193505b821561105f57611047611042610960565b610b20565b61105a611052610960565b600084613cb1565b611070565b611067610960565b81600301819055505b6000816000015410158061108957506000816006015410155b6110c8576040517f08c379a00000000000000000000000000000000000000000000000000000000081526004016110bf906156a2565b60405180910390fd5b806006015485111561121b5780600001548160060154866110e99190615be6565b111561115c57806006015481600001546111039190615994565b9450806000015460026000600354815260200190815260200160002060030160008360010154815260200190815260200160002060008282546111469190615be6565b92505081905550600081600001819055506111da565b80600601548561116c9190615be6565b60026000600354815260200190815260200160002060030160008360010154815260200190815260200160002060008282546111a89190615be6565b925050819055508060060154856111bf9190615be6565b8160000160008282546111d29190615be6565b925050819055505b8060060154600460008360010154815260200190815260200160002060008282546112059190615be6565b9250508190555060008160060181905550611265565b84600460008360010154815260200190815260200160002060008282546112429190615be6565b925050819055508481600601600082825461125d9190615be6565b925050819055505b600d54426112739190615994565b81600401819055508481600501600082825461128f9190615994565b92505081905550600015156112a383610a38565b151514156113255760008160020181905550600660008260010154815260200190815260200160002060008154809291906112dd90615cf1565b91905055506112ea611a7a565b7fed2050a282e53dad13795a7f5e44c37d7856e7ab983e16785049fc598136906a82600060405161131c92919061538b565b60405180910390a15b7f0c53c82ad07e2d592d88ece3b066777dd60f1118e2a081b380efc4358f0d9e2a8286836004015460405161135c93929190615414565b60405180910390a1831561137357611372611392565b5b5050505050565b60066020528060005260406000206000915090505481565b600061139c613ca9565b90506000600160008373ffffffffffffffffffffffffffffffffffffffff1673ffffffffffffffffffffffffffffffffffffffff1681526020019081526020016000209050600081600401541415611429576040517f08c379a000000000000000000000000000000000000000000000000000000000815260040161142090615770565b60405180910390fd5b600081600501541015611471576040517f08c379a0000000000000000000000000000000000000000000000000000000008152600401611468906155b4565b60405180910390fd5b60004282600401541015611486576000611497565b4282600401546114969190615be6565b5b9050600080600d54116114ab5760006114ef565b6064600f54600d546114bd9190615b8c565b6114c79190615b8c565b600e548385600501546114da9190615b8c565b6114e49190615b8c565b6114ee91906159ea565b5b9050600860009054906101000a900473ffffffffffffffffffffffffffffffffffffffff1673ffffffffffffffffffffffffffffffffffffffff1663a9059cbb858386600501546115409190615be6565b6040518363ffffffff1660e01b815260040161155d9291906153b4565b602060405180830381600087803b15801561157757600080fd5b505af115801561158b573d6000803e3d6000fd5b505050506040513d601f19601f820116820180604052508101906115af9190614a3a565b507ff279e6a1f5e320cca91135676d9cb6e44ca8a08c0b88342bcdb1144f6511b568848460050154836040516115e793929190615414565b60405180910390a1600083600401819055506000836005018190555050505050565b60125481565b600080600090505b6002600085815260200190815260200160002060020154811161169e57826001826116429190615994565b61164c9190615a6e565b6002600086815260200190815260200160002060030160008381526020019081526020016000205461167e9190615b8c565b826116899190615994565b9150808061169690615d4d565b915050611617565b5092915050565b6116ad613ca9565b73ffffffffffffffffffffffffffffffffffffffff166116cb611c17565b73ffffffffffffffffffffffffffffffffffffffff1614611721576040517f08c379a000000000000000000000000000000000000000000000000000000000815260040161171890615710565b60405180910390fd5b80600e819055507fad219fed7e76fbd06f005484092a7e2a85d653e9e6be64f32f01c2bb5b21d0e0816040516117579190615586565b60405180910390a150565b600760009054906101000a900473ffffffffffffffffffffffffffffffffffffffff1681565b611798611793610960565b610b20565b5050565b600060606117a8610960565b6003541091509250929050565b60008060006117cb846117c6610960565b612d94565b92505091508060e00151828260c0015183600001516117ea9190615994565b6117f49190615994565b6117fe9190615994565b92505050919050565b61180f613ca9565b73ffffffffffffffffffffffffffffffffffffffff1661182d611c17565b73ffffffffffffffffffffffffffffffffffffffff1614611883576040517f08c379a000000000000000000000000000000000000000000000000000000000815260040161187a90615710565b60405180910390fd5b61188d6000613feb565b565b600860009054906101000a900473ffffffffffffffffffffffffffffffffffffffff1681565b6118bd613ca9565b73ffffffffffffffffffffffffffffffffffffffff166118db611c17565b73ffffffffffffffffffffffffffffffffffffffff1614611931576040517f08c379a000000000000000000000000000000000000000000000000000000000815260040161192890615710565b60405180910390fd5b61194161193c610960565b610b20565b60005b81518110156119b3576119a0611958610960565b6000848481518110611993577f4e487b7100000000000000000000000000000000000000000000000000000000600052603260045260246000fd5b6020026020010151613cb1565b80806119ab90615d4d565b915050611944565b5050565b600d5481565b6119c5613ca9565b73ffffffffffffffffffffffffffffffffffffffff166119e3611c17565b73ffffffffffffffffffffffffffffffffffffffff1614611a39576040517f08c379a0000000000000000000000000000000000000000000000000000000008152600401611a3090615710565b60405180910390fd5b80600a819055507fad219fed7e76fbd06f005484092a7e2a85d653e9e6be64f32f01c2bb5b21d0e081604051611a6f9190615674565b60405180910390a150565b60006006600060026000600354815260200190815260200160002060020154815260200190815260200160002054148015611acd5750600060026000600354815260200190815260200160002060020154115b15611b62576000600160026000600354815260200190815260200160002060020154611af99190615be6565b90505b80600011611b6057600060066000838152602001908152602001600020541180611b265750600081145b15611b4d578060026000600354815260200190815260200160002060020181905550611b60565b8080611b5890615cf1565b915050611afc565b505b565b60026020528060005260406000206000915090508060000154908060010154908060020154905083565b600080600090505b600260006003548152602001908152602001600020600201548111611c0b5782600182611bc39190615994565b611bcd9190615a6e565b6004600083815260200190815260200160002054611beb9190615b8c565b82611bf69190615994565b91508080611c0390615d4d565b915050611b96565b50919050565b600c5481565b60008060009054906101000a900473ffffffffffffffffffffffffffffffffffffffff16905090565b611c48613ca9565b73ffffffffffffffffffffffffffffffffffffffff16611c66611c17565b73ffffffffffffffffffffffffffffffffffffffff1614611cbc576040517f08c379a0000000000000000000000000000000000000000000000000000000008152600401611cb390615710565b60405180910390fd5b80600760006101000a81548173ffffffffffffffffffffffffffffffffffffffff021916908373ffffffffffffffffffffffffffffffffffffffff16021790555050565b60118054611d0d90615d1b565b80601f0160208091040260200160405190810160405280929190818152602001828054611d3990615d1b565b8015611d865780601f10611d5b57610100808354040283529160200191611d86565b820191906000526020600020905b815481529060010190602001808311611d6957829003601f168201915b505050505081565b611d9e611d99610960565b610b20565b6000611da8613ca9565b905060008211611ded576040517f08c379a0000000000000000000000000000000000000000000000000000000008152600401611de490615654565b60405180910390fd5b81600860009054906101000a900473ffffffffffffffffffffffffffffffffffffffff1673ffffffffffffffffffffffffffffffffffffffff1663dd62ed3e83306040518363ffffffff1660e01b8152600401611e4b92919061532b565b60206040518083038186803b158015611e6357600080fd5b505afa158015611e77573d6000803e3d6000fd5b505050506040513d601f19601f82011682018060405250810190611e9b9190614ad1565b1015611edc576040517f08c379a0000000000000000000000000000000000000000000000000000000008152600401611ed390615730565b60405180910390fd5b600860009054906101000a900473ffffffffffffffffffffffffffffffffffffffff1673ffffffffffffffffffffffffffffffffffffffff166323b872dd8230856040518463ffffffff1660e01b8152600401611f3b93929190615354565b602060405180830381600087803b158015611f5557600080fd5b505af1158015611f69573d6000803e3d6000fd5b505050506040513d601f19601f82011682018060405250810190611f8d9190614a3a565b506000600160008373ffffffffffffffffffffffffffffffffffffffff1673ffffffffffffffffffffffffffffffffffffffff168152602001908152602001600020905060001515611fde83610a38565b151514156120ad57600260006003548152602001908152602001600020600201548160010154111561202c578060010154600260006003548152602001908152602001600020600201819055505b6006600082600101548152602001908152602001600020600081548092919061205490615d4d565b919050555042816002018190555061206a610960565b81600301819055507fed2050a282e53dad13795a7f5e44c37d7856e7ab983e16785049fc598136906a8260016040516120a492919061538b565b60405180910390a15b6120c06120b8610960565b600084613cb1565b828160060160008282546120d49190615994565b9250508190555082600460008360010154815260200190815260200160002060008282546121029190615994565b925050819055508173ffffffffffffffffffffffffffffffffffffffff167fb831f69f1cebc12b23cd864ce5bfea2669d01956050a0147d71d418074559c218460405161214f9190615790565b60405180910390a2505050565b61216c612167610960565b610b20565b6000612176613ca9565b9050612183818484613a6a565b73ffffffffffffffffffffffffffffffffffffffff16600760009054906101000a900473ffffffffffffffffffffffffffffffffffffffff1673ffffffffffffffffffffffffffffffffffffffff1614612212576040517f08c379a0000000000000000000000000000000000000000000000000000000008152600401612209906155f4565b60405180910390fd5b6000600160008373ffffffffffffffffffffffffffffffffffffffff1673ffffffffffffffffffffffffffffffffffffffff16815260200190815260200160002090508060010154841161229b576040517f08c379a000000000000000000000000000000000000000000000000000000000815260040161229290615614565b60405180910390fd5b6122a482610a38565b1561249d576122bc6122b4610960565b600084613cb1565b806000015460026000600354815260200190815260200160002060030160008360010154815260200190815260200160002060008282546122fd9190615be6565b925050819055508060000154600260006003548152602001908152602001600020600301600086815260200190815260200160002060008282546123419190615994565b925050819055508060060154600460008360010154815260200190815260200160002060008282546123739190615be6565b9250508190555080600601546004600086815260200190815260200160002060008282546123a19190615994565b925050819055508060070154600560008360010154815260200190815260200160002060008282546123d39190615be6565b9250508190555080600701546005600086815260200190815260200160002060008282546124019190615994565b925050819055506006600082600101548152602001908152602001600020600081548092919061243090615cf1565b919050555060066000858152602001908152602001600020600081548092919061245990615d4d565b91905055506002600060035481526020019081526020016000206002015484111561249c5783600260006003548152602001908152602001600020600201819055505b5b83816001018190555050505050565b6124b4613ca9565b73ffffffffffffffffffffffffffffffffffffffff166124d2611c17565b73ffffffffffffffffffffffffffffffffffffffff1614612528576040517f08c379a000000000000000000000000000000000000000000000000000000000815260040161251f90615710565b60405180910390fd5b805182511461256c576040517f08c379a000000000000000000000000000000000000000000000000000000000815260040161256390615750565b60405180910390fd5b61257c612577610960565b610b20565b612585826118b5565b60005b8251811015612a73576000600160008584815181106125d0577f4e487b7100000000000000000000000000000000000000000000000000000000600052603260045260246000fd5b602002602001015173ffffffffffffffffffffffffffffffffffffffff1673ffffffffffffffffffffffffffffffffffffffff16815260200190815260200160002090508060010154838381518110612652577f4e487b7100000000000000000000000000000000000000000000000000000000600052603260045260246000fd5b602002602001015114156126665750612a60565b6126af8483815181106126a2577f4e487b7100000000000000000000000000000000000000000000000000000000600052603260045260246000fd5b6020026020010151610a38565b15612a1557806000015460026000600354815260200190815260200160002060030160008360010154815260200190815260200160002060008282546126f59190615be6565b9250508190555080600001546002600060035481526020019081526020016000206003016000858581518110612754577f4e487b7100000000000000000000000000000000000000000000000000000000600052603260045260246000fd5b6020026020010151815260200190815260200160002060008282546127799190615994565b925050819055508060060154600460008360010154815260200190815260200160002060008282546127ab9190615be6565b925050819055508060060154600460008585815181106127f4577f4e487b7100000000000000000000000000000000000000000000000000000000600052603260045260246000fd5b6020026020010151815260200190815260200160002060008282546128199190615994565b9250508190555080600701546005600083600101548152602001908152602001600020600082825461284b9190615be6565b92505081905550806007015460056000858581518110612894577f4e487b7100000000000000000000000000000000000000000000000000000000600052603260045260246000fd5b6020026020010151815260200190815260200160002060008282546128b99190615994565b92505081905550600660008260010154815260200190815260200160002060008154809291906128e890615cf1565b91905055506006600084848151811061292a577f4e487b7100000000000000000000000000000000000000000000000000000000600052603260045260246000fd5b60200260200101518152602001908152602001600020600081548092919061295190615d4d565b9190505550600260006003548152602001908152602001600020600201548383815181106129a8577f4e487b7100000000000000000000000000000000000000000000000000000000600052603260045260246000fd5b60200260200101511115612a14578282815181106129ef577f4e487b7100000000000000000000000000000000000000000000000000000000600052603260045260246000fd5b6020026020010151600260006003548152602001908152602001600020600201819055505b5b828281518110612a4e577f4e487b7100000000000000000000000000000000000000000000000000000000600052603260045260246000fd5b60200260200101518160010181905550505b8080612a6b90615d4d565b915050612588565b50612a7c611a7a565b5050565b612a88613ca9565b73ffffffffffffffffffffffffffffffffffffffff16612aa6611c17565b73ffffffffffffffffffffffffffffffffffffffff1614612afc576040517f08c379a0000000000000000000000000000000000000000000000000000000008152600401612af390615710565b60405180910390fd5b612b06600061378c565b612b106000611b8e565b612b1d600354600061160f565b600860009054906101000a900473ffffffffffffffffffffffffffffffffffffffff1673ffffffffffffffffffffffffffffffffffffffff166370a08231306040518263ffffffff1660e01b8152600401612b789190615310565b60206040518083038186803b158015612b9057600080fd5b505afa158015612ba4573d6000803e3d6000fd5b505050506040513d601f19601f82011682018060405250810190612bc89190614ad1565b612bd29190615be6565b612bdc9190615be6565b612be69190615be6565b811115612cda57612bf7600061378c565b612c016000611b8e565b612c0e600354600061160f565b600860009054906101000a900473ffffffffffffffffffffffffffffffffffffffff1673ffffffffffffffffffffffffffffffffffffffff166370a08231306040518263ffffffff1660e01b8152600401612c699190615310565b60206040518083038186803b158015612c8157600080fd5b505afa158015612c95573d6000803e3d6000fd5b505050506040513d601f19601f82011682018060405250810190612cb99190614ad1565b612cc39190615be6565b612ccd9190615be6565b612cd79190615be6565b90505b600860009054906101000a900473ffffffffffffffffffffffffffffffffffffffff1673ffffffffffffffffffffffffffffffffffffffff1663a9059cbb612d20611c17565b836040518363ffffffff1660e01b8152600401612d3e9291906153b4565b602060405180830381600087803b158015612d5857600080fd5b505af1158015612d6c573d6000803e3d6000fd5b505050506040513d601f19601f82011682018060405250810190612d909190614a3a565b5050565b600080612d9f614635565b600160008673ffffffffffffffffffffffffffffffffffffffff1673ffffffffffffffffffffffffffffffffffffffff16815260200190815260200160002060405180610100016040529081600082015481526020016001820154815260200160028201548152602001600382015481526020016004820154815260200160058201548152602001600682015481526020016007820154815250509050600081606001518511612e50576000612e61565b816060015185612e609190615be6565b5b905060001515612e7087610a38565b15151480612e7e5750600081145b15612e90576000809350935050613737565b60008260000151905060008360e001519050600080600080600160026000600354815260200190815260200160002060020154612ecd9190615994565b67ffffffffffffffff811115612f0c577f4e487b7100000000000000000000000000000000000000000000000000000000600052604160045260246000fd5b604051908082528060200260200182016040528015612f3a5781602001602082028036833780820191505090505b5090506000600160026000600354815260200190815260200160002060020154612f649190615994565b67ffffffffffffffff811115612fa3577f4e487b7100000000000000000000000000000000000000000000000000000000600052604160045260246000fd5b604051908082528060200260200182016040528015612fd15781602001602082028036833780820191505090505b5090506000896060015190505b600a548d11612fed578c612ff1565b600a545b81101561371b57600060035482116130615761300e82600161160f565b965060026000838152602001908152602001600020600101549450600354821015613051576002600083815260200190815260200160002060000154955061305c565b61305961380f565b95505b6135b0565b60016003546130709190615994565b8214156131765760005b600260006003548152602001908152602001600020600201548111613174576002600060035481526020019081526020016000206003016000828152602001908152602001600020548582815181106130fc577f4e487b7100000000000000000000000000000000000000000000000000000000600052603260045260246000fd5b6020026020010181815250506005600082815260200190815260200160002054848281518110613155577f4e487b7100000000000000000000000000000000000000000000000000000000600052603260045260246000fd5b602002602001018181525050808061316c90615d4d565b91505061307a565b505b60005b60026000600354815260200190815260200160002060020154811161345a576000808911156132be578582815181106131db577f4e487b7100000000000000000000000000000000000000000000000000000000600052603260045260246000fd5b6020026020010151896001846131f19190615994565b8a6131fc9190615b8c565b8b6132079190615994565b888581518110613240577f4e487b7100000000000000000000000000000000000000000000000000000000600052603260045260246000fd5b60200260200101516132529190615b8c565b61325c91906159ea565b6132669190615be6565b9050808683815181106132a2577f4e487b7100000000000000000000000000000000000000000000000000000000600052603260045260246000fd5b602002602001018181516132b69190615994565b915081815250505b6001600c54856132ce9190615da0565b14156133d857600f5487826132e39190615b8c565b6132ed91906159ea565b858381518110613326577f4e487b7100000000000000000000000000000000000000000000000000000000600052603260045260246000fd5b60200260200101516133389190615994565b868381518110613371577f4e487b7100000000000000000000000000000000000000000000000000000000600052603260045260246000fd5b602002602001018181516133859190615994565b9150818152505060008583815181106133c7577f4e487b7100000000000000000000000000000000000000000000000000000000600052603260045260246000fd5b602002602001018181525050613446565b600f5487826133e79190615b8c565b6133f191906159ea565b85838151811061342a577f4e487b7100000000000000000000000000000000000000000000000000000000600052603260045260246000fd5b6020026020010181815161343e9190615994565b915081815250505b50808061345290615d4d565b915050613179565b50600160035461346a9190615994565b8214156135105760005b60026000600354815260200190815260200160002060020154811161350e5760046000828152602001908152602001600020548582815181106134e0577f4e487b7100000000000000000000000000000000000000000000000000000000600052603260045260246000fd5b602002602001018181516134f49190615994565b91508181525050808061350690615d4d565b915050613474565b505b6000965060005b6002600060035481526020019081526020016000206002015481116135ae576001816135439190615994565b85828151811061357c577f4e487b7100000000000000000000000000000000000000000000000000000000600052603260045260246000fd5b602002602001015161358e9190615b8c565b886135999190615994565b975080806135a690615d4d565b915050613517565b505b600087111561363e57600089888860018f602001516135cf9190615994565b6135d99190615b8c565b8a6135e49190615994565b8c6135ef9190615b8c565b6135f991906159ea565b6136039190615be6565b9050808a6136119190615994565b9950808e61361f9190615994565b9d50600f5486826136309190615b8c565b61363a91906159ea565b9150505b60008b60c001511115613686578a60c001518961365b9190615994565b98508a60c001518b6000018181516136739190615994565b9150818152505060008b60c00181815250505b6000600c54836136969190615da0565b14156136ed578a60e00151896136ac9190615994565b985080896136ba9190615994565b98508a60e00151816136cc9190615994565b8d6136d79190615994565b9c506000975060008b60e0018181525050613707565b808b60e0018181516136ff9190615994565b915081815250505b50808061371390615d4d565b915050612fde565b50858960e0015161372c9190615be6565b995050505050505050505b9250925092565b60016020528060005260406000206000915090508060000154908060010154908060020154908060030154908060040154908060050154908060060154908060070154905088565b600f5481565b600080600090505b60026000600354815260200190815260200160002060020154811161380957826001826137c19190615994565b6137cb9190615a6e565b60056000838152602001908152602001600020546137e99190615b8c565b826137f49190615994565b9150808061380190615d4d565b915050613794565b50919050565b60008061381f600354600161160f565b1180156139095750613831600061378c565b61383b6000611b8e565b613848600354600061160f565b6138529190615994565b61385c9190615994565b600860009054906101000a900473ffffffffffffffffffffffffffffffffffffffff1673ffffffffffffffffffffffffffffffffffffffff166370a08231306040518263ffffffff1660e01b81526004016138b79190615310565b60206040518083038186803b1580156138cf57600080fd5b505afa1580156138e3573d6000803e3d6000fd5b505050506040513d601f19601f820116820180604052508101906139079190614ad1565b115b15613a6257600f54600260006003548152602001908152602001600020600101546139349190615994565b6003546001600a546139469190615994565b6139509190615be6565b61395a9190615b8c565b600f54613967600061378c565b6139716000611b8e565b61397e600354600061160f565b600860009054906101000a900473ffffffffffffffffffffffffffffffffffffffff1673ffffffffffffffffffffffffffffffffffffffff166370a08231306040518263ffffffff1660e01b81526004016139d99190615310565b60206040518083038186803b1580156139f157600080fd5b505afa158015613a05573d6000803e3d6000fd5b505050506040513d601f19601f82011682018060405250810190613a299190614ad1565b613a339190615be6565b613a3d9190615be6565b613a479190615be6565b613a519190615b8c565b613a5b91906159ea565b9050613a67565b600090505b90565b6000613aa8613aa2308686604051602001613a8793929190615354565b604051602081830303815290604052805190602001206140af565b836140df565b90509392505050565b600b5481565b613ac082610b20565b6000613aca613ca9565b9050613ad7838383613cb1565b505050565b613ae4613ca9565b73ffffffffffffffffffffffffffffffffffffffff16613b02611c17565b73ffffffffffffffffffffffffffffffffffffffff1614613b58576040517f08c379a0000000000000000000000000000000000000000000000000000000008152600401613b4f90615710565b60405180910390fd5b80600d819055507fad219fed7e76fbd06f005484092a7e2a85d653e9e6be64f32f01c2bb5b21d0e081604051613b8e91906156c2565b60405180910390a150565b60056020528060005260406000206000915090505481565b613bb9613ca9565b73ffffffffffffffffffffffffffffffffffffffff16613bd7611c17565b73ffffffffffffffffffffffffffffffffffffffff1614613c2d576040517f08c379a0000000000000000000000000000000000000000000000000000000008152600401613c2490615710565b60405180910390fd5b600073ffffffffffffffffffffffffffffffffffffffff168173ffffffffffffffffffffffffffffffffffffffff161415613c9d576040517f08c379a0000000000000000000000000000000000000000000000000000000008152600401613c94906155d4565b60405180910390fd5b613ca681613feb565b50565b600033905090565b6000600160008373ffffffffffffffffffffffffffffffffffffffff1673ffffffffffffffffffffffffffffffffffffffff168152602001908152602001600020905083613cfd610960565b1015613d0e57613d0b610960565b93505b600081600301548511613d22576000613d33565b816003015485613d329190615be6565b5b905060001515613d4284610a38565b15151480613d505750600081145b15613d5c575050613fe6565b6000806000613d6b8689612d94565b925092509250806000015185600001819055508060c0015185600601819055508060e0015185600701819055508785600301819055508615613f7257826002600060035481526020019081526020016000206003016000876001015481526020019081526020016000206000828254613de49190615be6565b92505081905550600860009054906101000a900473ffffffffffffffffffffffffffffffffffffffff1673ffffffffffffffffffffffffffffffffffffffff1663a9059cbb613e31613ca9565b856040518363ffffffff1660e01b8152600401613e4f9291906153b4565b602060405180830381600087803b158015613e6957600080fd5b505af1158015613e7d573d6000803e3d6000fd5b505050506040513d601f19601f82011682018060405250810190613ea19190614a3a565b5060001515613eaf87610a38565b15151415613f31576000856002018190555060066000866001015481526020019081526020016000206000815480929190613ee990615cf1565b9190505550613ef6611a7a565b7fed2050a282e53dad13795a7f5e44c37d7856e7ab983e16785049fc598136906a866000604051613f2892919061538b565b60405180910390a15b7ff279e6a1f5e320cca91135676d9cb6e44ca8a08c0b88342bcdb1144f6511b56886846000604051613f65939291906153dd565b60405180910390a1613f8e565b82856000016000828254613f869190615994565b925050819055505b8573ffffffffffffffffffffffffffffffffffffffff167ff7577ecd57024d1db753d1908737deb1073a4736ed61dc00d0af965534c4a3d8848487604051613fd8939291906157e3565b60405180910390a250505050505b505050565b60008060009054906101000a900473ffffffffffffffffffffffffffffffffffffffff169050816000806101000a81548173ffffffffffffffffffffffffffffffffffffffff021916908373ffffffffffffffffffffffffffffffffffffffff1602179055508173ffffffffffffffffffffffffffffffffffffffff168173ffffffffffffffffffffffffffffffffffffffff167f8be0079c531659141344cd1fd0a4f28419497f9722a3daafe3b4186f6b6457e060405160405180910390a35050565b6000816040516020016140c291906152ea565b604051602081830303815290604052805190602001209050919050565b60008060006140ee8585614106565b915091506140fb81614189565b819250505092915050565b6000806041835114156141485760008060006020860151925060408601519150606086015160001a905061413c878285856144da565b94509450505050614182565b60408351141561417957600080602085015191506040850151905061416e8683836145e7565b935093505050614182565b60006002915091505b9250929050565b600060048111156141c3577f4e487b7100000000000000000000000000000000000000000000000000000000600052602160045260246000fd5b8160048111156141fc577f4e487b7100000000000000000000000000000000000000000000000000000000600052602160045260246000fd5b1415614207576144d7565b60016004811115614241577f4e487b7100000000000000000000000000000000000000000000000000000000600052602160045260246000fd5b81600481111561427a577f4e487b7100000000000000000000000000000000000000000000000000000000600052602160045260246000fd5b14156142bb576040517f08c379a00000000000000000000000000000000000000000000000000000000081526004016142b290615518565b60405180910390fd5b600260048111156142f5577f4e487b7100000000000000000000000000000000000000000000000000000000600052602160045260246000fd5b81600481111561432e577f4e487b7100000000000000000000000000000000000000000000000000000000600052602160045260246000fd5b141561436f576040517f08c379a000000000000000000000000000000000000000000000000000000000815260040161436690615566565b60405180910390fd5b600360048111156143a9577f4e487b7100000000000000000000000000000000000000000000000000000000600052602160045260246000fd5b8160048111156143e2577f4e487b7100000000000000000000000000000000000000000000000000000000600052602160045260246000fd5b1415614423576040517f08c379a000000000000000000000000000000000000000000000000000000000815260040161441a90615634565b60405180910390fd5b60048081111561445c577f4e487b7100000000000000000000000000000000000000000000000000000000600052602160045260246000fd5b816004811115614495577f4e487b7100000000000000000000000000000000000000000000000000000000600052602160045260246000fd5b14156144d6576040517f08c379a00000000000000000000000000000000000000000000000000000000081526004016144cd906156f0565b60405180910390fd5b5b50565b6000807f7fffffffffffffffffffffffffffffff5d576e7357a4501ddfe92f46681b20a08360001c11156145155760006003915091506145de565b601b8560ff161415801561452d5750601c8560ff1614155b1561453f5760006004915091506145de565b6000600187878787604051600081526020016040526040516145649493929190615496565b6020604051602081039080840390855afa158015614586573d6000803e3d6000fd5b505050602060405103519050600073ffffffffffffffffffffffffffffffffffffffff168173ffffffffffffffffffffffffffffffffffffffff1614156145d5576000600192509250506145de565b80600092509250505b94509492505050565b6000806000807f7fffffffffffffffffffffffffffffffffffffffffffffffffffffffffffffff85169150601b8560ff1c019050614627878288856144da565b935093505050935093915050565b60405180610100016040528060008152602001600081526020016000815260200160008152602001600081526020016000815260200160008152602001600081525090565b600061468d614688846158c9565b615898565b905080838252602082019050828560208602820111156146ac57600080fd5b60005b858110156146dc57816146c28882614790565b8452602084019350602083019250506001810190506146af565b5050509392505050565b60006146f96146f4846158f5565b615898565b9050808382526020820190508285602086028201111561471857600080fd5b60005b85811015614748578161472e8882614897565b84526020840193506020830192505060018101905061471b565b5050509392505050565b600061476561476084615921565b615898565b90508281526020810184848401111561477d57600080fd5b614788848285615caf565b509392505050565b60008135905061479f81615eab565b92915050565b600082601f8301126147b657600080fd5b81356147c684826020860161467a565b91505092915050565b600082601f8301126147e057600080fd5b81356147f08482602086016146e6565b91505092915050565b60008135905061480881615ec2565b92915050565b60008151905061481d81615ec2565b92915050565b60008083601f84011261483557600080fd5b8235905067ffffffffffffffff81111561484e57600080fd5b60208301915083600182028301111561486657600080fd5b9250929050565b600082601f83011261487e57600080fd5b813561488e848260208601614752565b91505092915050565b6000813590506148a681615ed9565b92915050565b6000815190506148bb81615ed9565b92915050565b6000602082840312156148d357600080fd5b60006148e184828501614790565b91505092915050565b600080604083850312156148fd57600080fd5b600061490b85828601614790565b925050602061491c85828601614897565b9150509250929050565b60008060006060848603121561493b57600080fd5b600061494986828701614790565b935050602061495a86828701614897565b925050604084013567ffffffffffffffff81111561497757600080fd5b6149838682870161486d565b9150509250925092565b60006020828403121561499f57600080fd5b600082013567ffffffffffffffff8111156149b957600080fd5b6149c5848285016147a5565b91505092915050565b600080604083850312156149e157600080fd5b600083013567ffffffffffffffff8111156149fb57600080fd5b614a07858286016147a5565b925050602083013567ffffffffffffffff811115614a2457600080fd5b614a30858286016147cf565b9150509250929050565b600060208284031215614a4c57600080fd5b6000614a5a8482850161480e565b91505092915050565b60008060208385031215614a7657600080fd5b600083013567ffffffffffffffff811115614a9057600080fd5b614a9c85828601614823565b92509250509250929050565b600060208284031215614aba57600080fd5b6000614ac884828501614897565b91505092915050565b600060208284031215614ae357600080fd5b6000614af1848285016148ac565b91505092915050565b60008060408385031215614b0d57600080fd5b6000614b1b85828601614897565b9250506020614b2c858286016147f9565b9150509250929050565b600080600060608486031215614b4b57600080fd5b6000614b5986828701614897565b9350506020614b6a868287016147f9565b9250506040614b7b868287016147f9565b9150509250925092565b60008060408385031215614b9857600080fd5b6000614ba685828601614897565b925050602083013567ffffffffffffffff811115614bc357600080fd5b614bcf8582860161486d565b9150509250929050565b60008060408385031215614bec57600080fd5b6000614bfa85828601614897565b9250506020614c0b85828601614897565b9150509250929050565b614c1e81615c1a565b82525050565b614c2d81615c2c565b82525050565b614c3c81615c38565b82525050565b614c53614c4e82615c38565b615d96565b82525050565b6000614c6482615951565b614c6e8185615967565b9350614c7e818560208601615cbe565b614c8781615e8d565b840191505092915050565b614c9b81615c79565b82525050565b614caa81615c9d565b82525050565b6000614cbb8261595c565b614cc58185615978565b9350614cd5818560208601615cbe565b614cde81615e8d565b840191505092915050565b6000614cf6601883615978565b91507f45434453413a20696e76616c6964207369676e617475726500000000000000006000830152602082019050919050565b6000614d36601783615978565b91507f457874726120726577617264206d756c7469706c6965720000000000000000006000830152602082019050919050565b6000614d76601f83615978565b91507f45434453413a20696e76616c6964207369676e6174757265206c656e677468006000830152602082019050919050565b6000614db6601c83615989565b91507f19457468657265756d205369676e6564204d6573736167653a0a3332000000006000830152601c82019050919050565b6000614df6601083615978565b91507f4e657720776974686472617720666565000000000000000000000000000000006000830152602082019050919050565b6000614e36601383615978565b91507f4e6f7468696e6720746f207769746864726177000000000000000000000000006000830152602082019050919050565b6000614e76602683615978565b91507f4f776e61626c653a206e6577206f776e657220697320746865207a65726f206160008301527f64647265737300000000000000000000000000000000000000000000000000006020830152604082019050919050565b6000614edc600b83615978565b91507f496e76616c6964207369670000000000000000000000000000000000000000006000830152602082019050919050565b6000614f1c601283615978565b91507f4e6f2077656967687420696e63726561736500000000000000000000000000006000830152602082019050919050565b6000614f5c602283615978565b91507f45434453413a20696e76616c6964207369676e6174757265202773272076616c60008301527f75650000000000000000000000000000000000000000000000000000000000006020830152604082019050919050565b6000614fc2601383615978565b91507f416d6f756e74206e6f7420706f736974697665000000000000000000000000006000830152602082019050919050565b6000615002601583615978565b91507f4d6178206e756d626572206f6620706572696f647300000000000000000000006000830152602082019050919050565b6000615042601283615978565b91507f4e6f7468696e6720776173207374616b656400000000000000000000000000006000830152602082019050919050565b6000615082601083615978565b91507f436f6f6c20646f776e20706572696f64000000000000000000000000000000006000830152602082019050919050565b60006150c2602283615978565b91507f45434453413a20696e76616c6964207369676e6174757265202776272076616c60008301527f75650000000000000000000000000000000000000000000000000000000000006020830152604082019050919050565b6000615128602083615978565b91507f4f776e61626c653a2063616c6c6572206973206e6f7420746865206f776e65726000830152602082019050919050565b6000615168601b83615978565b91507f546f6b656e207472616e73666572206e6f7420617070726f76656400000000006000830152602082019050919050565b60006151a8600f83615978565b91507f4c656e677468206d69736d6174636800000000000000000000000000000000006000830152602082019050919050565b60006151e8601383615978565b91507f4e6f2077697468647261772072657175657374000000000000000000000000006000830152602082019050919050565b6101008201600082015161523260008501826152bd565b50602082015161524560208501826152bd565b50604082015161525860408501826152bd565b50606082015161526b60608501826152bd565b50608082015161527e60808501826152bd565b5060a082015161529160a08501826152bd565b5060c08201516152a460c08501826152bd565b5060e08201516152b760e08501826152bd565b50505050565b6152c681615c62565b82525050565b6152d581615c62565b82525050565b6152e481615c6c565b82525050565b60006152f582614da9565b91506153018284614c42565b60208201915081905092915050565b60006020820190506153256000830184614c15565b92915050565b60006040820190506153406000830185614c15565b61534d6020830184614c15565b9392505050565b60006060820190506153696000830186614c15565b6153766020830185614c15565b61538360408301846152cc565b949350505050565b60006040820190506153a06000830185614c15565b6153ad6020830184614c24565b9392505050565b60006040820190506153c96000830185614c15565b6153d660208301846152cc565b9392505050565b60006060820190506153f26000830186614c15565b6153ff60208301856152cc565b61540c6040830184614ca1565b949350505050565b60006060820190506154296000830186614c15565b61543660208301856152cc565b61544360408301846152cc565b949350505050565b60006020820190506154606000830184614c24565b92915050565b600060408201905061547b6000830185614c24565b818103602083015261548d8184614c59565b90509392505050565b60006080820190506154ab6000830187614c33565b6154b860208301866152db565b6154c56040830185614c33565b6154d26060830184614c33565b95945050505050565b60006020820190506154f06000830184614c92565b92915050565b600060208201905081810360008301526155108184614cb0565b905092915050565b6000602082019050818103600083015261553181614ce9565b9050919050565b6000604082019050818103600083015261555181614d29565b905061556060208301846152cc565b92915050565b6000602082019050818103600083015261557f81614d69565b9050919050565b6000604082019050818103600083015261559f81614de9565b90506155ae60208301846152cc565b92915050565b600060208201905081810360008301526155cd81614e29565b9050919050565b600060208201905081810360008301526155ed81614e69565b9050919050565b6000602082019050818103600083015261560d81614ecf565b9050919050565b6000602082019050818103600083015261562d81614f0f565b9050919050565b6000602082019050818103600083015261564d81614f4f565b9050919050565b6000602082019050818103600083015261566d81614fb5565b9050919050565b6000604082019050818103600083015261568d81614ff5565b905061569c60208301846152cc565b92915050565b600060208201905081810360008301526156bb81615035565b9050919050565b600060408201905081810360008301526156db81615075565b90506156ea60208301846152cc565b92915050565b60006020820190508181036000830152615709816150b5565b9050919050565b600060208201905081810360008301526157298161511b565b9050919050565b600060208201905081810360008301526157498161515b565b9050919050565b600060208201905081810360008301526157698161519b565b9050919050565b60006020820190508181036000830152615789816151db565b9050919050565b60006020820190506157a560008301846152cc565b92915050565b6000610140820190506157c160008301866152cc565b6157ce60208301856152cc565b6157db604083018461521b565b949350505050565b60006060820190506157f860008301866152cc565b61580560208301856152cc565b61581260408301846152cc565b949350505050565b600061010082019050615830600083018b6152cc565b61583d602083018a6152cc565b61584a60408301896152cc565b61585760608301886152cc565b61586460808301876152cc565b61587160a08301866152cc565b61587e60c08301856152cc565b61588b60e08301846152cc565b9998505050505050505050565b6000604051905081810181811067ffffffffffffffff821117156158bf576158be615e5e565b5b8060405250919050565b600067ffffffffffffffff8211156158e4576158e3615e5e565b5b602082029050602081019050919050565b600067ffffffffffffffff8211156159105761590f615e5e565b5b602082029050602081019050919050565b600067ffffffffffffffff82111561593c5761593b615e5e565b5b601f19601f8301169050602081019050919050565b600081519050919050565b600081519050919050565b600082825260208201905092915050565b600082825260208201905092915050565b600081905092915050565b600061599f82615c62565b91506159aa83615c62565b9250827fffffffffffffffffffffffffffffffffffffffffffffffffffffffffffffffff038211156159df576159de615dd1565b5b828201905092915050565b60006159f582615c62565b9150615a0083615c62565b925082615a1057615a0f615e00565b5b828204905092915050565b6000808291508390505b6001851115615a6557808604811115615a4157615a40615dd1565b5b6001851615615a505780820291505b8081029050615a5e85615e9e565b9450615a25565b94509492505050565b6000615a7982615c62565b9150615a8483615c62565b9250615ab17fffffffffffffffffffffffffffffffffffffffffffffffffffffffffffffffff8484615ab9565b905092915050565b600082615ac95760019050615b85565b81615ad75760009050615b85565b8160018114615aed5760028114615af757615b26565b6001915050615b85565b60ff841115615b0957615b08615dd1565b5b8360020a915084821115615b2057615b1f615dd1565b5b50615b85565b5060208310610133831016604e8410600b8410161715615b5b5782820a905083811115615b5657615b55615dd1565b5b615b85565b615b688484846001615a1b565b92509050818404811115615b7f57615b7e615dd1565b5b81810290505b9392505050565b6000615b9782615c62565b9150615ba283615c62565b9250817fffffffffffffffffffffffffffffffffffffffffffffffffffffffffffffffff0483118215151615615bdb57615bda615dd1565b5b828202905092915050565b6000615bf182615c62565b9150615bfc83615c62565b925082821015615c0f57615c0e615dd1565b5b828203905092915050565b6000615c2582615c42565b9050919050565b60008115159050919050565b6000819050919050565b600073ffffffffffffffffffffffffffffffffffffffff82169050919050565b6000819050919050565b600060ff82169050919050565b6000615c8482615c8b565b9050919050565b6000615c9682615c42565b9050919050565b6000615ca882615c62565b9050919050565b82818337600083830152505050565b60005b83811015615cdc578082015181840152602081019050615cc1565b83811115615ceb576000848401525b50505050565b6000615cfc82615c62565b91506000821415615d1057615d0f615dd1565b5b600182039050919050565b60006002820490506001821680615d3357607f821691505b60208210811415615d4757615d46615e2f565b5b50919050565b6000615d5882615c62565b91507fffffffffffffffffffffffffffffffffffffffffffffffffffffffffffffffff821415615d8b57615d8a615dd1565b5b600182019050919050565b6000819050919050565b6000615dab82615c62565b9150615db683615c62565b925082615dc657615dc5615e00565b5b828206905092915050565b7f4e487b7100000000000000000000000000000000000000000000000000000000600052601160045260246000fd5b7f4e487b7100000000000000000000000000000000000000000000000000000000600052601260045260246000fd5b7f4e487b7100000000000000000000000000000000000000000000000000000000600052602260045260246000fd5b7f4e487b7100000000000000000000000000000000000000000000000000000000600052604160045260246000fd5b6000601f19601f8301169050919050565b60008160011c9050919050565b615eb481615c1a565b8114615ebf57600080fd5b50565b615ecb81615c2c565b8114615ed657600080fd5b50565b615ee281615c62565b8114615eed57600080fd5b5056fea2646970667358221220cda3071bc3562e7a620bc47de76713e85ed3b8622bb2faf2923767b89b62f97264736f6c63430008000033",
  "immutableReferences": {},
  "source": "//SPDX-License-Identifier: UNLICENSED\npragma solidity ^0.8.0;\n\nimport \"@openzeppelin/contracts/token/ERC20/IERC20.sol\";\nimport \"@openzeppelin/contracts/access/Ownable.sol\";\nimport \"@openzeppelin/contracts/utils/math/SafeMath.sol\";\nimport \"@openzeppelin/contracts/utils/cryptography/ECDSA.sol\";\n\n/**\n * @title A staking contract for Cooker tokens\n * @author Kasper De Blieck (kasperdeblieck@cooker.art)\n * This contract allows Cooker token owners to stake their funds.\n * Staking funds will reward a periodic compounded interest.\n */\ncontract CookerStaking is Ownable {\n    \n    using SafeMath for uint;\n\n    /**\n    Emits when a config field is updated\n    @param field_ of the field\n    @param value_ new value of the field\n     */\n    event ConfigUpdate(string field_, uint value_);\n    /**\n    Emits when new address stakes\n    @param stakeholder_ address of the stakeholder\n    @param stake_ new amount of staked tokens\n     */\n    event Staking(address indexed stakeholder_, uint stake_);\n    /**\n    Emits when stakeholder claims rewards\n    @param stakeholder_ address of the stakeholder\n    @param reward_ reward claimed\n    @param lockedReward_ amount of additional reward that is locked\n    @param numberOfPeriods_ number of periods rewarded\n     */\n    event Rewarding(address indexed stakeholder_, uint reward_, uint lockedReward_, uint numberOfPeriods_);\n    /**\n     Emits when a stakeholder requested a withdrawal\n     @param stakeholder_ address of the stakeholder\n     @param amount_ amount of tokens withdrawn from the contract \n     @param releaseDate_ timestamp when cooldown is over for the user  \n     */\n    event InitiateWithdraw(address stakeholder_, uint amount_, uint releaseDate_);\n    /**\n     Emits when a stakeholder finalizes a withdrawal\n     @param stakeholder_ address of the stakeholder\n     @param amount_ amount of tokens sent to the stakeholder\n     @param fee_ fee paid for early withdrawal\n     */\n    event Withdraw(address stakeholder_, uint amount_, uint fee_);\n    /**\n     Emits when a new staker enters the contract by staking or existing stakeholder leaves by withdrawing\n     @param stakeholder_ address of the stakeholder\n     @param active_ yes if the staker becomes active, false if inactive\n     */\n    event Active(address stakeholder_, bool active_);\n\n    /** @return Stakeholder Struct containing the state of each stakeholder */\n    struct StakeHolder {\n        uint stakingBalance; // Staking balance of the stakeholder\n        uint weight; // The weight of the staker\n        uint startDate; // The date the staker joined\n        uint lastClaimed; // The date the stakeholder claimed the last rewards\n        uint releaseDate; // Date on which the stakeholder is able to withdraw the staked funds\n        uint releaseAmount; // Amount to be released at the release date\n        uint newStake; // Will be used to update the stake of the user in the next period\n        uint lockedRewards; // Extra reward claimable after additional time has passed\n    }\n\n    /** @return RewardPeriod Struct containing the state of each reward period.*/\n    struct RewardPeriod {\n        uint rewardPerPeriod; // amount to distribute over stakeholders\n        uint extraRewardMultiplier; // Used to calculate the extra reward on each reward (will be divided by decimalPrecision)\n        uint maxWeight; // Highest weight observed in the period\n        mapping (uint => uint) _totalStakingBalance; // Mapping weight to stake amount of tokens staked\n    }\n\n    // Keeps track of user information by mapping the stakeholder address to his state */\n    mapping(address => StakeHolder) public stakeholders;\n\n    // Keeps track of the different reward intervals, sequentially */\n    mapping (uint => RewardPeriod) public rewardPeriods;\n\n    // How many reward periods are handled */\n    uint public latestRewardPeriod; // How many reward periods are handled\n    mapping (uint => uint) _totalNewStake; // Tokens staked in this period to be added in the next one.\n    mapping (uint => uint) public _totalLockedRewards; // Total amount of locked rewards\n    mapping (uint => uint) public weightCounts; // counts of stakers per weight\n\n    // Address used to verify users updating weight\n    address public signatureAddress;\n\n    IERC20 public stakingToken;\n\n    uint public startDate; // Used to calculate how many periods have passed\n    uint public maxNumberOfPeriods; // Used to cap the end date in the reward calculation\n    uint public rewardPeriodDuration; // Length in between reward distribution\n    uint public periodsForExtraReward; // Interval after which stakers get an extra reward\n    uint public cooldown; // Length between withdrawal request and withdrawal without fee is possible\n    uint public earlyWithdrawalFee; // Fee penalising early withdrawal, percentage times decimalPrecision\n    uint public decimalPrecision = 10**6;\n\n    // Fields needed for displaying total tokens share as ERC20 compatibility token\n    string public name = \"Staked ENV\"; \n    string public symbol = \"sENV\";\n    uint public decimals = 18;\n\n    /**\n     Sets a number of initial state variables\n     */\n    constructor(\n                uint maxNumberOfPeriods_, // Used to cap the end date in the reward calculation\n                uint rewardPeriodDuration_, // Length in between reward distribution\n                uint periodsForExtraReward_, // Length in between reward distribution\n                uint extraRewardMultiplier_,\n                uint cooldown_,\n                uint earlyWithdrawalFee_,\n                address signatureAddress_,\n                address stakingTokenAddress) {\n        maxNumberOfPeriods = maxNumberOfPeriods_;\n        rewardPeriodDuration = rewardPeriodDuration_;\n        periodsForExtraReward = periodsForExtraReward_;\n        cooldown = cooldown_;\n        earlyWithdrawalFee = earlyWithdrawalFee_;\n\n        signatureAddress = signatureAddress_;\n        stakingToken = IERC20(stakingTokenAddress);\n\n        startDate = block.timestamp;            \n        \n        // Initialise the first reward period in the sequence\n        rewardPeriods[0].extraRewardMultiplier = extraRewardMultiplier_;\n    }\n\n    /**\n     * Calculates the staking balance for a certain period.\n     * Can provide the current balance or balance to be added next period.\n     * Also weighted (or multiple weighted) balances can be returned\n     * @param period The period for which to call the balance\n     * @param weightExponent How many times does the stake need to be multiplied with the weight?\n     * @return totalStaking the total amount staked for the parameters.\n     */\n    function totalStakingBalance(uint period, uint weightExponent) public view returns (uint totalStaking){\n        for(uint i = 0; i <= rewardPeriods[period].maxWeight; i++){\n            totalStaking += rewardPeriods[period]._totalStakingBalance[i] * (i+1) ** weightExponent;\n        }\n    }\n\n    /**\n     * Calculates the new staking balance accumulated in the current period.\n     * Also weighted (or multiple weighted) balances can be returned\n     * @param weightExponent How many times does the stake need to be multiplied with the weight?\n     * @return totalNew the total new amount staked to be included next period.\n     */\n    function totalNewStake(uint weightExponent) public view returns (uint totalNew){\n        for(uint i = 0; i <= rewardPeriods[latestRewardPeriod].maxWeight; i++){\n            totalNew += _totalNewStake[i] * (i+1) ** weightExponent;        \n        }\n    }\n\n    /**\n     * Calculates the new total locked rewards accumulated since latest unlock date.\n     * Also weighted (or multiple weighted) balances can be returned\n     * @param weightExponent How many times does the stake need to be multiplied with the weight?\n     * @return totalLocked the total new amount staked to be included next period.\n     */\n    function totalLockedRewards(uint weightExponent) public view returns (uint totalLocked){\n        for(uint i = 0; i <= rewardPeriods[latestRewardPeriod].maxWeight; i++){\n            totalLocked += _totalLockedRewards[i] * (i+1) ** weightExponent;        \n        }\n    }\n\n    /**\n     * Function to call when a new reward period is entered.\n     * The function will increment the maxRewardPeriod field,\n     * making the state of previous period immutable.\n     * The state will use the state of the last period as start for the current period.\n     * The total staking balance is updated with:\n     * - stake added in previous period\n     * - rewards earned in previous period\n     * - locked tokens, if they are unlocked.\n     * @param endPeriod the last period the function should handle.\n     *  cannot exceed the current period.\n     */\n    function handleNewPeriod(uint endPeriod) public {\n        // Don't update passed current period\n        if(currentPeriod() < endPeriod ){\n            endPeriod = currentPeriod();\n        }\n        // Close previous periods if in the past and create a new one\n        while(latestRewardPeriod < endPeriod){\n            // Update the rewards for the period to close - exclude \n            uint twsb = totalStakingBalance(latestRewardPeriod, 1);\n            rewardPeriods[latestRewardPeriod].rewardPerPeriod = calculateRewardPerPeriod();\n\n            // Initiate new period\n            latestRewardPeriod++;\n            rewardPeriods[latestRewardPeriod].extraRewardMultiplier = rewardPeriods[latestRewardPeriod-1].extraRewardMultiplier;\n            rewardPeriods[latestRewardPeriod].maxWeight = rewardPeriods[latestRewardPeriod-1].maxWeight;\n            rewardPeriods[latestRewardPeriod].rewardPerPeriod = rewardPeriods[latestRewardPeriod-1].rewardPerPeriod;\n\n            // Calculate total new staking positions per weight\n            for(uint i = 0; i<=rewardPeriods[latestRewardPeriod-1].maxWeight;i++){\n                rewardPeriods[latestRewardPeriod]._totalStakingBalance[i] = rewardPeriods[latestRewardPeriod-1]._totalStakingBalance[i] + _totalNewStake[i];\n                _totalNewStake[i] = 0;\n                uint newReward = 0;\n                if(twsb > 0 && rewardPeriods[latestRewardPeriod-1]._totalStakingBalance[i] > 0){\n                    newReward = (rewardPeriods[latestRewardPeriod-1].rewardPerPeriod * (i+1) + twsb)\n                        * rewardPeriods[latestRewardPeriod-1]._totalStakingBalance[i] / twsb\n                        - rewardPeriods[latestRewardPeriod-1]._totalStakingBalance[i];\n                    rewardPeriods[latestRewardPeriod]._totalStakingBalance[i] += newReward;\n\n                }\n                if(latestRewardPeriod % periodsForExtraReward == 1){\n                    rewardPeriods[latestRewardPeriod]._totalStakingBalance[i] += _totalLockedRewards[i]\n                            + newReward * rewardPeriods[latestRewardPeriod-1].extraRewardMultiplier / (decimalPrecision);\n                    _totalLockedRewards[i] = 0;\n                } else {\n                    _totalLockedRewards[i] += newReward * rewardPeriods[latestRewardPeriod-1].extraRewardMultiplier / (decimalPrecision);\n                }\n            }\n        }\n    }\n\n    /** Calculate reward for previous day when balance is known\n    If no stakingbalance is present, rewardPerPeriod will stay 0\n    @return rewardPerPeriod the reward per period based on current token balans\n    */\n    function calculateRewardPerPeriod() public view returns(uint rewardPerPeriod){\n            if((totalStakingBalance(latestRewardPeriod, 1) > 0) && stakingToken.balanceOf(address(this)) \n                > totalStakingBalance(latestRewardPeriod, 0)\n                    + totalNewStake(0)\n                    + totalLockedRewards(0)){\n                rewardPerPeriod = (stakingToken.balanceOf(address(this))\n                    - totalStakingBalance(latestRewardPeriod, 0)\n                    - totalNewStake(0)\n                    - totalLockedRewards(0)) * decimalPrecision\n                    / ((maxNumberOfPeriods + 1 - latestRewardPeriod) \n                        * (rewardPeriods[latestRewardPeriod].extraRewardMultiplier + decimalPrecision));\n            } else {\n                rewardPerPeriod = 0;\n            }\n    }\n\n    /**\n     * Increase the stake of the sender by a value.\n     * @param weight_ The new weight.\n     * @param signature A signature proving the sender\n     *  is allowed to update his weight.\n     */\n    function increaseWeight(uint weight_, bytes memory signature) public{\n        // Close previous period if in the past and create a new one, else update the latest one.\n        handleNewPeriod(currentPeriod());\n    \n        address sender = _msgSender();\n\n        // Verify the stakeholder was allowed to update stake\n        require(signatureAddress == _recoverSigner(sender, weight_, signature),\n            \"Invalid sig\");\n\n        StakeHolder storage stakeholder = stakeholders[sender];\n        require(weight_ > stakeholder.weight, \"No weight increase\");\n\n\n        // Some updates are only necessary if the staker is active\n        if(activeStakeholder(sender)){\n            // Claim previous rewards with old weight\n            handleRewards(currentPeriod(), false, sender);\n\n            // Update the total weighted amount of the current period.\n            rewardPeriods[latestRewardPeriod]._totalStakingBalance[stakeholder.weight] -= stakeholder.stakingBalance;\n            rewardPeriods[latestRewardPeriod]._totalStakingBalance[weight_] += stakeholder.stakingBalance;\n            \n            // Adjust total new stake\n            _totalNewStake[stakeholder.weight] -= stakeholder.newStake;\n            _totalNewStake[weight_] += stakeholder.newStake;\n\n            // Move locked rewards so they will be added to the correct total stake\n            _totalLockedRewards[stakeholder.weight] -= stakeholder.lockedRewards;\n            _totalLockedRewards[weight_] += stakeholder.lockedRewards;\n        \n            weightCounts[stakeholder.weight]--;\n            weightCounts[weight_]++;\n\n            // Keep track of highest weight\n            if(weight_ > rewardPeriods[latestRewardPeriod].maxWeight){\n                rewardPeriods[latestRewardPeriod].maxWeight = weight_;\n            }\n\n        }\n\n        // Finally, set the new weight\n        stakeholder.weight = weight_;\n    }\n\n    /**\n     * Update the stake of a list of stakeholders as owner.\n     * @param stakeholders_ The stakeholders\n     * @param weights_ The new weights.\n     *  is allowed to update his weight.\n     */\n    function updateWeightBatch(address[] memory stakeholders_, uint[] memory weights_) public onlyOwner{\n\n        require(stakeholders_.length == weights_.length, \"Length mismatch\");\n\n        // Close previous period if in the past and create a new one, else update the latest one.\n        handleNewPeriod(currentPeriod());\n        claimRewardsAsOwner(stakeholders_);\n\n        for(uint i = 0; i < stakeholders_.length; i++){\n\n            StakeHolder storage stakeholder = stakeholders[stakeholders_[i]];\n            if(weights_[i] == stakeholder.weight){continue;}\n\n\n            // Some updates are only necessary if the staker is active\n            if(activeStakeholder(stakeholders_[i])){\n\n                // Update the total weighted amount of the current period.\n                rewardPeriods[latestRewardPeriod]._totalStakingBalance[stakeholder.weight] -= stakeholder.stakingBalance;\n                rewardPeriods[latestRewardPeriod]._totalStakingBalance[weights_[i]] += stakeholder.stakingBalance;\n            \n                // Adjust total new stake\n                _totalNewStake[stakeholder.weight] -= stakeholder.newStake;\n                _totalNewStake[weights_[i]] += stakeholder.newStake;\n                \n                // Move locked rewards so they will be added to the correct total stake\n                _totalLockedRewards[stakeholder.weight] -= stakeholder.lockedRewards;\n                _totalLockedRewards[weights_[i]] += stakeholder.lockedRewards;\n                \n                weightCounts[stakeholder.weight]--;\n                weightCounts[weights_[i]]++;\n\n                // Keep track of highest weight\n                if(weights_[i] > rewardPeriods[latestRewardPeriod].maxWeight){\n                    rewardPeriods[latestRewardPeriod].maxWeight = weights_[i];\n                }\n            \n            }\n\n            // Finally, set the new weight\n            stakeholder.weight = weights_[i];\n\n        }\n\n        // Check if maxWeight decreased\n        handleDecreasingMaxWeight();\n    }\n\n    /**\n     * Increase the stake of the sender by a value.\n     * @param amount The amount to stake\n     */\n    function stake(uint amount) public {\n        // Close previous period if in the past and create a new one, else update the latest one.\n        handleNewPeriod(currentPeriod());\n        address sender = _msgSender();\n\n        require(amount > 0, \"Amount not positive\");\n        require(stakingToken.allowance(sender, address(this)) >= amount,\n             \"Token transfer not approved\");\n\n        // Transfer the tokens for staking\n        stakingToken.transferFrom(sender, address(this), amount);\n\n        // Update the stakeholders state\n        StakeHolder storage stakeholder = stakeholders[sender];\n\n        // Handle new staker\n        if(activeStakeholder(sender) == false){\n            if(stakeholder.weight > rewardPeriods[latestRewardPeriod].maxWeight){\n                rewardPeriods[latestRewardPeriod].maxWeight = stakeholder.weight;\n            }\n            weightCounts[stakeholder.weight]++;\n            stakeholder.startDate = block.timestamp;\n            stakeholder.lastClaimed = currentPeriod();\n            emit Active(sender, true);\n        }\n\n        // Claim previous rewards with old staked value\n        handleRewards(currentPeriod(), false, sender);\n\n        // The current period will calculate rewards with the old stake.\n        // Afterwards, newStake will be added to stake and calculation uses updated balance\n        stakeholder.newStake += amount;\n\n        // Update the totals\n        _totalNewStake[stakeholder.weight] += amount;\n        \n        emit Staking(sender, amount);\n    }\n\n    /**\n     Request to withdrawal funds from the contract.\n     The funds will not be regarded as stake anymore: no rewards can be earned anymore.\n     The funds are not withdrawn directly, they can be claimed with `withdrawFunds`\n     after the cooldown period has passed.\n     @dev the request will set the releaseDate for the stakeholder to `cooldown` time in the future,\n      and the releaseAmount to the amount requested for withdrawal.\n     @param amount The amount to withdraw, capped by the total stake + owed rewards.\n     @param instant If set to true, the `withdrawFunds` function will be called at the end of the request.\n      No second transaction is needed, but the full `earlyWithdrawalFee` needs to be paid.\n     @param claimRewardsFirst a boolean flag: should be set to true if you want to claim your rewards.\n      If set to false, all owed rewards will be dropped. Build in for safety, funds can be withdrawn\n      even when the reward calculations encounters a breaking bug.\n     */\n    function requestWithdrawal(uint amount, bool instant, bool claimRewardsFirst) public {\n        address sender = _msgSender();\n        StakeHolder storage stakeholder = stakeholders[sender];\n        \n        // If there is no cooldown, there is no need to have 2 separate function calls\n        if(cooldown == 0){\n            instant = true;\n        }\n\n        // Claim rewards with current stake\n        // Can be skipped as failsafe in case claiming rewards fails,\n        // but REWARDS ARE LOST.\n        if (claimRewardsFirst){\n            handleNewPeriod(currentPeriod());\n            handleRewards(currentPeriod(), false, sender);\n        } else {\n            stakeholder.lastClaimed = currentPeriod();\n        }\n        \n        require(stakeholder.stakingBalance >= 0 || stakeholder.newStake >= 0, \"Nothing was staked\");\n        \n        // First, withdraw newstake.\n        // If the amount exceeds this value, withdraw also from the staking balance.\n        // If the amount exceeds both balance, cap at the sum of the values\n        if(amount > stakeholder.newStake){\n            if((amount - stakeholder.newStake) > stakeholder.stakingBalance){\n                amount = stakeholder.stakingBalance + stakeholder.newStake;\n                rewardPeriods[latestRewardPeriod]._totalStakingBalance[stakeholder.weight] -= stakeholder.stakingBalance;\n                stakeholder.stakingBalance = 0;\n            } else {\n                rewardPeriods[latestRewardPeriod]._totalStakingBalance[stakeholder.weight] -= (amount - stakeholder.newStake);\n                stakeholder.stakingBalance -= (amount - stakeholder.newStake);\n            }\n            _totalNewStake[stakeholder.weight] -= stakeholder.newStake;\n            stakeholder.newStake = 0;\n        } else {\n            _totalNewStake[stakeholder.weight] -= amount;\n            stakeholder.newStake -= amount;\n        }\n\n        stakeholder.releaseDate = block.timestamp + cooldown;\n        stakeholder.releaseAmount += amount;\n\n        \n        // If no stake is left in any way,\n        // treat the staker as leaving\n        if(activeStakeholder(sender) == false){\n            stakeholder.startDate = 0;\n            weightCounts[stakeholder.weight]--;\n            // Check if maxWeight decreased\n            handleDecreasingMaxWeight();\n            emit Active(sender, false);\n        }\n        \n        emit InitiateWithdraw(sender, amount, stakeholder.releaseDate);\n\n        if(instant){\n            withdrawFunds();\n        }\n\n    }\n\n    /**\n     * Withdraw staked funds from the contract.\n     * Can only be triggered after `requestWithdrawal` has been called.\n     * If funds are withdrawn before the cooldown period has passed,\n     * a fee will fee deducted. Withdrawing the funds when triggering\n     * `requestWithdrawal` will result in a fee equal to `earlyWithdrawalFee`.\n     * Waiting until the cooldown period has passed results in no fee.\n     * Withdrawing at any other moment between these two periods in time\n     * results in a fee that lineairy decreases with time.\n     */\n    function withdrawFunds() public {\n        address sender = _msgSender();\n        StakeHolder storage stakeholder = stakeholders[sender];\n\n        require(stakeholder.releaseDate != 0,\n            \"No withdraw request\");\n        require(stakeholder.releaseAmount >= 0, \"Nothing to withdraw\");\n        \n        // Calculate time passed since withdraw request to calculate fee\n        uint timeToEnd = stakeholder.releaseDate >= block.timestamp ? (stakeholder.releaseDate - block.timestamp) : 0;\n        uint fee = (cooldown > 0) ? stakeholder.releaseAmount * timeToEnd * earlyWithdrawalFee / (cooldown * decimalPrecision * 100) : 0;\n\n        // Transfer reduced amount to the staker, fee stays in contract\n        stakingToken.transfer(sender, stakeholder.releaseAmount - fee);\n        emit Withdraw(sender, stakeholder.releaseAmount, fee);\n\n        stakeholder.releaseDate = 0;\n        stakeholder.releaseAmount = 0;\n    }\n\n    /**\n     * Function to claim the rewards earned by staking for the sender.\n     * @dev Calls `handleRewards` for the sender\n     * @param endPeriod The periods to claim rewards for.\n     * @param withdraw if true, send the rewards to the stakeholder.\n     *  if false, add the rewards to the staking balance of the stakeholder.\n     */\n    function claimRewards(uint endPeriod, bool withdraw) public {\n        // If necessary, close the current latest period and create a new latest.\n        handleNewPeriod(endPeriod);\n        address stakeholderAddress = _msgSender();\n        handleRewards(endPeriod, withdraw, stakeholderAddress);    \n    }\n\n    /**\n     * Function to claim the rewards for a list of stakers as owner.\n     * No funds are withdrawn, only staking balances are updated.\n     * @dev Calls `handleRewards` in a loop for the stakers defined\n     * @param stakeholders_ list of stakeholders to claim rewards for\n     */\n    function claimRewardsAsOwner(address[] memory stakeholders_) public onlyOwner{\n        // If necessary, close the current latest period and create a new latest.\n        handleNewPeriod(currentPeriod());\n        for(uint i = 0; i < stakeholders_.length; i++){\n            handleRewards(currentPeriod(), false, stakeholders_[i]);\n        }\n    }\n\n    /**\n     * Function to claim the rewards earned by staking for an address.\n     * @dev uses calculateRewards to get the amount owed\n     * @param endPeriod The periods to claim rewards for.\n     * @param withdraw if true, send the rewards to the stakeholder.\n     *  if false, add the rewards to the staking balance of the stakeholder.\n     * @param stakeholderAddress address to claim rewards for\n     */\n    function handleRewards(uint endPeriod, bool withdraw, address stakeholderAddress) internal {\n        StakeHolder storage stakeholder = stakeholders[stakeholderAddress];\n        \n        if(currentPeriod() < endPeriod){\n            endPeriod = currentPeriod();\n        }\n        // Number of periods for which rewards will be paid\n        // Current period is not in the interval as it is not finished.\n        uint n = (endPeriod > stakeholder.lastClaimed) ? \n            endPeriod - stakeholder.lastClaimed : 0;\n\n        // If no potental stake is present or no time passed since last claim,\n        // new rewards do not need to be calculated.\n        if (activeStakeholder(stakeholderAddress) == false || n == 0){\n                return;\n        }\n\n        // Calculate the rewards and new stakeholder state\n        (uint reward, uint lockedRewards, StakeHolder memory newStakeholder) = calculateRewards(stakeholderAddress, endPeriod);\n        \n        // Update stakeholder values\n        stakeholder.stakingBalance = newStakeholder.stakingBalance;\n        stakeholder.newStake = newStakeholder.newStake;\n        stakeholder.lockedRewards = newStakeholder.lockedRewards;\n\n        // Update last claimed and reward definition to use in next calculation\n        stakeholder.lastClaimed = endPeriod;\n\n        // If the stakeholder wants to withdraw the rewards,\n        // send the funds to his wallet. Else, update stakingbalance.\n        if (withdraw){\n            rewardPeriods[latestRewardPeriod]._totalStakingBalance[stakeholder.weight] -= reward;\n            stakingToken.transfer(_msgSender(), reward);\n            // If no stake is left in any way,\n            // treat the staker as leaving\n            if(activeStakeholder(stakeholderAddress) == false){\n                stakeholder.startDate = 0;\n                weightCounts[stakeholder.weight]--;\n                // Check if maxWeight decreased\n                handleDecreasingMaxWeight();\n                emit Active(stakeholderAddress, false);\n            }\n            emit Withdraw(stakeholderAddress, reward, 0);\n        } else {\n            stakeholder.stakingBalance += reward;\n        }\n\n        emit Rewarding(stakeholderAddress, reward, lockedRewards, n);\n\n    }\n\n    /**\n     * Calculate the rewards owed to a stakeholder.\n     * The interest will be calculated based on:\n     *  - The reward to divide in this period\n     *  - The the relative stake of the stakeholder (taking previous rewards in account)\n     *  - The time the stakeholder has been staking.\n     * The formula of compounding interest is applied, meaning rewards on rewards are calculated.\n     * @param stakeholderAddress The address to calculate rewards for\n     * @param endPeriod The rewards will be calculated until this period.\n     * @return reward The rewards of the stakeholder for previous periods that can be claimed instantly.\n     * @return lockedRewards The additional locked rewards for this period\n     * @return stakeholder The new object containing stakeholder state\n     */\n    function calculateRewards(address stakeholderAddress, uint endPeriod) public view returns(uint reward, uint lockedRewards, StakeHolder memory stakeholder) {\n\n        stakeholder = stakeholders[stakeholderAddress];\n        \n        // Number of periods for which rewards will be paid\n        // lastClaimed is included, currentPeriod not.\n        uint n = (endPeriod > stakeholder.lastClaimed) ? \n            endPeriod - stakeholder.lastClaimed : 0;\n\n        // If no stake is present or no time passed since last claim, 0 can be returned.\n        if (activeStakeholder(stakeholderAddress) == false || n == 0){\n                return (0, 0, stakeholder);\n        }\n\n        uint currentStake = stakeholder.stakingBalance;\n        uint initialLocked = stakeholder.lockedRewards;\n\n        // Loop over all following intervals to calculate the rewards for following periods.\n        uint twsb;\n        uint rpp;\n        uint erm;\n        uint[] memory tsb = new uint[](rewardPeriods[latestRewardPeriod].maxWeight+1);\n        uint[] memory tlr = new uint[](rewardPeriods[latestRewardPeriod].maxWeight+1);\n\n        // Loop over over all periods.\n        // Start is last claimed date,\n        // end is capped by the smallest of:\n        // - the endPeriod function parameter\n        // - the max number of periods for which rewards are distributed\n        for (uint p = stakeholder.lastClaimed;\n            p < (endPeriod > maxNumberOfPeriods ? maxNumberOfPeriods : endPeriod);\n            p++) {\n\n            uint extraReward;\n            // If p is smaller than the latest reward period registered,\n            // calculate the rewards based on state\n            if(p <= latestRewardPeriod){\n                twsb = totalStakingBalance(p,1);\n                erm = rewardPeriods[p].extraRewardMultiplier;\n                if(p<latestRewardPeriod){\n                    rpp = rewardPeriods[p].rewardPerPeriod;\n                }\n                else {\n                    rpp = calculateRewardPerPeriod();\n                }\n            }\n            // If p is bigger, simulate the behaviour of `handleNewPeriod`\n            // and `_totalStakingBalance` with the current state of the last period.\n            // This part is never used in `claimRewards` as the state is updated first\n            // but it is needed when directly calling this function to:\n            // - calculating current rewards before anyone triggered `handleNewPeriod`\n            // - forecasting expected returns with a period in the future\n            else {\n                // Initialize first simulation\n                if(p == latestRewardPeriod + 1){\n                    for(uint i = 0; i<=rewardPeriods[latestRewardPeriod].maxWeight; i++){\n                        tsb[i]=rewardPeriods[latestRewardPeriod]._totalStakingBalance[i];\n                        tlr[i]=_totalLockedRewards[i];\n                    }\n                }\n\n                // Add rewards of last period\n                for(uint i = 0; i<=rewardPeriods[latestRewardPeriod].maxWeight; i++){\n                    uint newReward = 0;\n                    if(twsb > 0){\n                        newReward = (tsb[i]*(twsb+rpp*(i+1)) / twsb) - tsb[i];\n                        tsb[i] += newReward;\n                    }\n\n                    if(p % periodsForExtraReward == 1){\n                        tsb[i] += tlr[i]\n                                + newReward * erm / (decimalPrecision);\n                        tlr[i] = 0;\n                    } else {\n                        tlr[i] += newReward * erm / (decimalPrecision);\n                    }\n                }\n                // Add new stake of last period (only first simulation)\n                if(p == latestRewardPeriod + 1){\n                    for(uint i = 0; i<=rewardPeriods[latestRewardPeriod].maxWeight; i++){\n                        tsb[i] += _totalNewStake[i];\n                    }\n                } \n\n                // Calculate weighted staking balance for reward calculation\n                twsb = 0;\n                for(uint i = 0; i<=rewardPeriods[latestRewardPeriod].maxWeight; i++){\n                    twsb += tsb[i]*(i+1);\n                }               \n\n            }\n\n            // Update the new stake\n            if(twsb > 0){\n                uint newReward = (currentStake*(twsb + (stakeholder.weight+1) * rpp) / twsb) - currentStake;\n                currentStake += newReward;\n                reward += newReward;\n                extraReward = newReward*erm/(decimalPrecision);\n            }\n\n            if(stakeholder.newStake > 0){\n                // After reward last period with old stake, add it to balance\n                currentStake += stakeholder.newStake;\n                stakeholder.stakingBalance += stakeholder.newStake;\n                stakeholder.newStake = 0;\n            }\n\n            // Calculate extra reward from new reward\n            if(p % periodsForExtraReward == 0){\n                // Add earlier earned extra rewards to the stake\n                currentStake += stakeholder.lockedRewards;\n                // Add new extra rewards to the stake\n                currentStake += extraReward;\n                // Update total reward\n                reward += extraReward + stakeholder.lockedRewards;\n                // Reset initial locked tokens, these are not locked anymore\n                initialLocked = 0;\n                stakeholder.lockedRewards = 0;\n            } else {\n                stakeholder.lockedRewards += extraReward;\n            }\n\n        }\n\n        lockedRewards = stakeholder.lockedRewards - initialLocked;\n    }\n\n\n    /**\n     * Checks if the signature is created out of the contract address, sender and new weight,\n     * signed by the private key of the signerAddress\n     * @param sender the address of the message sender\n     * @param weight amount of tokens to mint\n     * @param signature a signature of the contract address, senderAddress and tokensId.\n     *   Should be signed by the private key of signerAddress.\n     */\n    function _recoverSigner(address sender, uint weight, bytes memory signature) public view returns (address){\n        return ECDSA.recover(ECDSA.toEthSignedMessageHash(keccak256(abi.encode(address(this), sender, weight))) , signature);\n    }\n\n    /**\n     * Owner function to transfer the staking token from the contract\n     * address to the contract owner.\n     * The amount cannot exceed the amount staked by the stakeholders,\n     * making sure the funds of stakeholders stay in the contract.\n     * Unclaimed rewards and locked rewards cannot be withdrawn either.\n     * @param amount the amount to withraw as owner\n     */\n    function withdrawRemainingFunds(uint amount) public onlyOwner{\n\n        // Make sure the staked amounts rewards are never withdrawn\n        if(amount > stakingToken.balanceOf(address(this))\n            - totalStakingBalance(latestRewardPeriod,0) \n            - totalNewStake(0)\n            - totalLockedRewards(0)){\n                amount = stakingToken.balanceOf(address(this))\n                            - totalStakingBalance(latestRewardPeriod,0) \n                            - totalNewStake(0)\n                            - totalLockedRewards(0);\n        }\n\n        stakingToken.transfer(owner(), amount);\n    }\n\n    /**\n     * Update the address used to verify signatures\n     * @param value the new address to use for verification\n     */\n    function updateSignatureAddress(address value) public onlyOwner {\n        signatureAddress = value; \n    }\n\n    /**\n     * @param value the new end date after which rewards will stop\n     */\n    function updateMaxNumberOfPeriods(uint value) public onlyOwner {\n        maxNumberOfPeriods = value; \n        emit ConfigUpdate('Max number of periods', value);\n    }\n\n    /**\n     * Updates the cooldown period.\n     * @param value The new cooldown per period\n     */\n    function updateCoolDownPeriod(uint value) public onlyOwner{\n        cooldown = value;\n        emit ConfigUpdate('Cool down period', value);\n    }\n\n    /**\n     * Updates the early withdraw fee.\n     * @param value The new fee\n     */\n    function updateEarlyWithdrawalFee(uint value) public onlyOwner{\n        earlyWithdrawalFee = value;\n        emit ConfigUpdate('New withdraw fee', value);\n    }\n\n    /**\n     * Updates the extra reward multiplier, starting instantly.\n     * Take into account this value will be divided by decimalPrecision\n     * in order to allow multipliers < 1 up to 0.000001.\n     * @param value The new reward per period\n     */\n    function updateExtraRewardMultiplier(uint value) public onlyOwner{\n        handleNewPeriod(currentPeriod());       \n        rewardPeriods[latestRewardPeriod].extraRewardMultiplier = value;\n        emit ConfigUpdate('Extra reward multiplier', value);\n    }\n\n    /**\n     * Calculates how many reward periods passed since the start.\n     * @return period the current period\n     */\n    function currentPeriod() public view returns(uint period){\n        period = (block.timestamp - startDate) / rewardPeriodDuration;\n        if(period > maxNumberOfPeriods){\n            period = maxNumberOfPeriods;\n        }\n    }\n\n    /**\n     * Updates maxWeight in case there are no stakeholders with this weight left\n     */\n    function handleDecreasingMaxWeight() public {\n        if (weightCounts[rewardPeriods[latestRewardPeriod].maxWeight] == 0 && rewardPeriods[latestRewardPeriod].maxWeight > 0){\n            for(uint i = rewardPeriods[latestRewardPeriod].maxWeight - 1; 0 <= i; i--){\n                if(weightCounts[i] > 0 || i == 0){\n                    rewardPeriods[latestRewardPeriod].maxWeight = i;\n                    break;\n                }\n            }\n        }        \n    }\n\n    /**\n     * Checks if a stakeholder is still active\n     * Active stakeholders have at least one of following things:\n     * - positive staking balance\n     * - positive new stake to be added next period\n     * - positive locked tokens that can come in circulation \n     * @return active true if stakeholder holds active balance\n     */\n    function activeStakeholder(address stakeholderAddress) public view returns(bool active) {\n        return (stakeholders[stakeholderAddress].stakingBalance > 0\n            || stakeholders[stakeholderAddress].newStake > 0\n            || stakeholders[stakeholderAddress].lockedRewards > 0);\n    }\n\n    /**\n     * Returns the tokens staked, the rewards earned and locked tokens as balance for a stakeholder.\n     * Used in applications expecting the ERC20 interface, e.g. Metamask\n     * @param stakeholderAddress the address to return the balance for\n     * @return balance the sum of total stakingbalance, reward and locked tokens\n     */\n    function balanceOf(address stakeholderAddress) public view returns (uint256 balance){\n            (uint reward,, StakeHolder memory stakeholder) = calculateRewards(stakeholderAddress, currentPeriod());\n\n            balance = stakeholder.stakingBalance\n                + stakeholder.newStake\n                + reward\n                + stakeholder.lockedRewards; \n\n    }\n\n    /* Functions used for the Chainlink Keepers solution, keeping the contract up to date*/\n\n    function checkUpkeep(bytes calldata /* checkData */) public view returns (bool upkeepNeeded, bytes memory /* performData */){\n        upkeepNeeded = latestRewardPeriod < currentPeriod();\n    }\n\n    function performUpkeep(bytes calldata /* performData*/ ) external{\n        handleNewPeriod(currentPeriod());\n    }\n\n\n\n}",
  "sourcePath": "/Users/Baas/repos/cooker/repos/staking/contracts/contracts/CookerStaking.sol",
  "compiler": {
    "name": "solc",
    "version": "0.8.0+commit.c7dfd78e.Emscripten.clang"
  },
  "schemaVersion": "3.4.2",
  "updatedAt": "2022-01-24T18:33:48.438Z",
  "networkType": "ethereum",
  "devdoc": {
    "author": "Kasper De Blieck (kasperdeblieck@cooker.art) This contract allows Cooker token owners to stake their funds. Staking funds will reward a periodic compounded interest.",
    "events": {
      "Active(address,bool)": {
        "params": {
          "active_": "yes if the staker becomes active, false if inactive",
          "stakeholder_": "address of the stakeholder"
        }
      },
      "ConfigUpdate(string,uint256)": {
        "params": {
          "field_": "of the field",
          "value_": "new value of the field"
        }
      },
      "InitiateWithdraw(address,uint256,uint256)": {
        "params": {
          "amount_": "amount of tokens withdrawn from the contract ",
          "releaseDate_": "timestamp when cooldown is over for the user  ",
          "stakeholder_": "address of the stakeholder"
        }
      },
      "Rewarding(address,uint256,uint256,uint256)": {
        "params": {
          "lockedReward_": "amount of additional reward that is locked",
          "numberOfPeriods_": "number of periods rewarded",
          "reward_": "reward claimed",
          "stakeholder_": "address of the stakeholder"
        }
      },
      "Staking(address,uint256)": {
        "params": {
          "stake_": "new amount of staked tokens",
          "stakeholder_": "address of the stakeholder"
        }
      },
      "Withdraw(address,uint256,uint256)": {
        "params": {
          "amount_": "amount of tokens sent to the stakeholder",
          "fee_": "fee paid for early withdrawal",
          "stakeholder_": "address of the stakeholder"
        }
      }
    },
    "kind": "dev",
    "methods": {
      "_recoverSigner(address,uint256,bytes)": {
        "params": {
          "sender": "the address of the message sender",
          "signature": "a signature of the contract address, senderAddress and tokensId.   Should be signed by the private key of signerAddress.",
          "weight": "amount of tokens to mint"
        }
      },
      "activeStakeholder(address)": {
        "returns": {
          "active": "true if stakeholder holds active balance"
        }
      },
      "balanceOf(address)": {
        "params": {
          "stakeholderAddress": "the address to return the balance for"
        },
        "returns": {
          "balance": "the sum of total stakingbalance, reward and locked tokens"
        }
      },
      "calculateRewardPerPeriod()": {
        "returns": {
          "rewardPerPeriod": "the reward per period based on current token balans"
        }
      },
      "calculateRewards(address,uint256)": {
        "params": {
          "endPeriod": "The rewards will be calculated until this period.",
          "stakeholderAddress": "The address to calculate rewards for"
        },
        "returns": {
          "lockedRewards": "The additional locked rewards for this period",
          "reward": "The rewards of the stakeholder for previous periods that can be claimed instantly.",
          "stakeholder": "The new object containing stakeholder state"
        }
      },
      "claimRewards(uint256,bool)": {
        "details": "Calls `handleRewards` for the sender",
        "params": {
          "endPeriod": "The periods to claim rewards for.",
          "withdraw": "if true, send the rewards to the stakeholder.  if false, add the rewards to the staking balance of the stakeholder."
        }
      },
      "claimRewardsAsOwner(address[])": {
        "details": "Calls `handleRewards` in a loop for the stakers defined",
        "params": {
          "stakeholders_": "list of stakeholders to claim rewards for"
        }
      },
      "currentPeriod()": {
        "returns": {
          "period": "the current period"
        }
      },
      "handleNewPeriod(uint256)": {
        "params": {
          "endPeriod": "the last period the function should handle.  cannot exceed the current period."
        }
      },
      "increaseWeight(uint256,bytes)": {
        "params": {
          "signature": "A signature proving the sender  is allowed to update his weight.",
          "weight_": "The new weight."
        }
      },
      "owner()": {
        "details": "Returns the address of the current owner."
      },
      "renounceOwnership()": {
        "details": "Leaves the contract without owner. It will not be possible to call `onlyOwner` functions anymore. Can only be called by the current owner. NOTE: Renouncing ownership will leave the contract without an owner, thereby removing any functionality that is only available to the owner."
      },
      "requestWithdrawal(uint256,bool,bool)": {
        "details": "the request will set the releaseDate for the stakeholder to `cooldown` time in the future, and the releaseAmount to the amount requested for withdrawal.",
        "params": {
          "amount": "The amount to withdraw, capped by the total stake + owed rewards.",
          "claimRewardsFirst": "a boolean flag: should be set to true if you want to claim your rewards. If set to false, all owed rewards will be dropped. Build in for safety, funds can be withdrawn even when the reward calculations encounters a breaking bug.",
          "instant": "If set to true, the `withdrawFunds` function will be called at the end of the request. No second transaction is needed, but the full `earlyWithdrawalFee` needs to be paid."
        }
      },
      "stake(uint256)": {
        "params": {
          "amount": "The amount to stake"
        }
      },
      "totalLockedRewards(uint256)": {
        "params": {
          "weightExponent": "How many times does the stake need to be multiplied with the weight?"
        },
        "returns": {
          "totalLocked": "the total new amount staked to be included next period."
        }
      },
      "totalNewStake(uint256)": {
        "params": {
          "weightExponent": "How many times does the stake need to be multiplied with the weight?"
        },
        "returns": {
          "totalNew": "the total new amount staked to be included next period."
        }
      },
      "totalStakingBalance(uint256,uint256)": {
        "params": {
          "period": "The period for which to call the balance",
          "weightExponent": "How many times does the stake need to be multiplied with the weight?"
        },
        "returns": {
          "totalStaking": "the total amount staked for the parameters."
        }
      },
      "transferOwnership(address)": {
        "details": "Transfers ownership of the contract to a new account (`newOwner`). Can only be called by the current owner."
      },
      "updateCoolDownPeriod(uint256)": {
        "params": {
          "value": "The new cooldown per period"
        }
      },
      "updateEarlyWithdrawalFee(uint256)": {
        "params": {
          "value": "The new fee"
        }
      },
      "updateExtraRewardMultiplier(uint256)": {
        "params": {
          "value": "The new reward per period"
        }
      },
      "updateMaxNumberOfPeriods(uint256)": {
        "params": {
          "value": "the new end date after which rewards will stop"
        }
      },
      "updateSignatureAddress(address)": {
        "params": {
          "value": "the new address to use for verification"
        }
      },
      "updateWeightBatch(address[],uint256[])": {
        "params": {
          "stakeholders_": "The stakeholders",
          "weights_": "The new weights.  is allowed to update his weight."
        }
      },
      "withdrawRemainingFunds(uint256)": {
        "params": {
          "amount": "the amount to withraw as owner"
        }
      }
    },
    "title": "A staking contract for Cooker tokens",
    "version": 1
  },
  "userdoc": {
    "events": {
      "Active(address,bool)": {
        "notice": "Emits when a new staker enters the contract by staking or existing stakeholder leaves by withdrawing"
      },
      "ConfigUpdate(string,uint256)": {
        "notice": "Emits when a config field is updated"
      },
      "InitiateWithdraw(address,uint256,uint256)": {
        "notice": "Emits when a stakeholder requested a withdrawal"
      },
      "Rewarding(address,uint256,uint256,uint256)": {
        "notice": "Emits when stakeholder claims rewards"
      },
      "Staking(address,uint256)": {
        "notice": "Emits when new address stakes"
      },
      "Withdraw(address,uint256,uint256)": {
        "notice": "Emits when a stakeholder finalizes a withdrawal"
      }
    },
    "kind": "user",
    "methods": {
      "_recoverSigner(address,uint256,bytes)": {
        "notice": "Checks if the signature is created out of the contract address, sender and new weight, signed by the private key of the signerAddress"
      },
      "activeStakeholder(address)": {
        "notice": "Checks if a stakeholder is still active Active stakeholders have at least one of following things: - positive staking balance - positive new stake to be added next period - positive locked tokens that can come in circulation "
      },
      "balanceOf(address)": {
        "notice": "Returns the tokens staked, the rewards earned and locked tokens as balance for a stakeholder. Used in applications expecting the ERC20 interface, e.g. Metamask"
      },
      "calculateRewardPerPeriod()": {
        "notice": "Calculate reward for previous day when balance is known If no stakingbalance is present, rewardPerPeriod will stay 0"
      },
      "calculateRewards(address,uint256)": {
        "notice": "Calculate the rewards owed to a stakeholder. The interest will be calculated based on:  - The reward to divide in this period  - The the relative stake of the stakeholder (taking previous rewards in account)  - The time the stakeholder has been staking. The formula of compounding interest is applied, meaning rewards on rewards are calculated."
      },
      "claimRewards(uint256,bool)": {
        "notice": "Function to claim the rewards earned by staking for the sender."
      },
      "claimRewardsAsOwner(address[])": {
        "notice": "Function to claim the rewards for a list of stakers as owner. No funds are withdrawn, only staking balances are updated."
      },
      "constructor": {
        "notice": "Sets a number of initial state variables"
      },
      "currentPeriod()": {
        "notice": "Calculates how many reward periods passed since the start."
      },
      "handleDecreasingMaxWeight()": {
        "notice": "Updates maxWeight in case there are no stakeholders with this weight left"
      },
      "handleNewPeriod(uint256)": {
        "notice": "Function to call when a new reward period is entered. The function will increment the maxRewardPeriod field, making the state of previous period immutable. The state will use the state of the last period as start for the current period. The total staking balance is updated with: - stake added in previous period - rewards earned in previous period - locked tokens, if they are unlocked."
      },
      "increaseWeight(uint256,bytes)": {
        "notice": "Increase the stake of the sender by a value."
      },
      "requestWithdrawal(uint256,bool,bool)": {
        "notice": "Request to withdrawal funds from the contract. The funds will not be regarded as stake anymore: no rewards can be earned anymore. The funds are not withdrawn directly, they can be claimed with `withdrawFunds` after the cooldown period has passed."
      },
      "stake(uint256)": {
        "notice": "Increase the stake of the sender by a value."
      },
      "totalLockedRewards(uint256)": {
        "notice": "Calculates the new total locked rewards accumulated since latest unlock date. Also weighted (or multiple weighted) balances can be returned"
      },
      "totalNewStake(uint256)": {
        "notice": "Calculates the new staking balance accumulated in the current period. Also weighted (or multiple weighted) balances can be returned"
      },
      "totalStakingBalance(uint256,uint256)": {
        "notice": "Calculates the staking balance for a certain period. Can provide the current balance or balance to be added next period. Also weighted (or multiple weighted) balances can be returned"
      },
      "updateCoolDownPeriod(uint256)": {
        "notice": "Updates the cooldown period."
      },
      "updateEarlyWithdrawalFee(uint256)": {
        "notice": "Updates the early withdraw fee."
      },
      "updateExtraRewardMultiplier(uint256)": {
        "notice": "Updates the extra reward multiplier, starting instantly. Take into account this value will be divided by decimalPrecision in order to allow multipliers < 1 up to 0.000001."
      },
      "updateSignatureAddress(address)": {
        "notice": "Update the address used to verify signatures"
      },
      "updateWeightBatch(address[],uint256[])": {
        "notice": "Update the stake of a list of stakeholders as owner."
      },
      "withdrawFunds()": {
        "notice": "Withdraw staked funds from the contract. Can only be triggered after `requestWithdrawal` has been called. If funds are withdrawn before the cooldown period has passed, a fee will fee deducted. Withdrawing the funds when triggering `requestWithdrawal` will result in a fee equal to `earlyWithdrawalFee`. Waiting until the cooldown period has passed results in no fee. Withdrawing at any other moment between these two periods in time results in a fee that lineairy decreases with time."
      },
      "withdrawRemainingFunds(uint256)": {
        "notice": "Owner function to transfer the staking token from the contract address to the contract owner. The amount cannot exceed the amount staked by the stakeholders, making sure the funds of stakeholders stay in the contract. Unclaimed rewards and locked rewards cannot be withdrawn either."
      }
    },
    "version": 1
  }
}